S021000074776F5F7669727475616C5F776865656C5F6175746F636F64652E6D6F7479
S113000000400020B50400001D0500001D0500008F
S11300101D0500001D0500001D0500000000000076
S11300200000000000000000000000001D050000AA
S11300301D050000000000001D0500001D05000056
S11300401D0500001D0500001D0500001D05000024
S11300501D0500001D0500001D0500001D05000014
S11300601D0500001D0500001D0500001D05000004
S11300701D0500001D0500001D0500001D050000F4
S11300801D0500001D0500001D0500001D050000E4
S11300901D0500001D0500001D0500001D050000D4
S11300A01D0500001D0500001D0500001D050000C4
S11300B01D0500001D0500001D0500001D050000B4
S11300C01D0500001D0500001D0500001D050000A4
S11300D01D0500001D0500001D0500001D05000094
S11300E01D0500001D0500001D0500001D05000084
S11300F01D0500001D0500001D0500001D05000074
S1130100854400001D0500001D0500001D050000BC
S11301101D0500001D0500001D0500001D05000053
S11301201D0500001D0500001D0500001D05000043
S11301301D0500001D0500001D0500001D05000033
S11301401D0500001D0500001D0500001D05000023
S11301501D0500001D0500001D0500001D05000013
S11301601D0500001D0500001D0500001D05000003
S11301701D0500001D0500001D0500001D050000F3
S11301801D0500001D0500001D0500001D050000E3
S11301901D0500001D0500001D0500001D050000D3
S11301A01D0500001D0500001D0500001D050000C3
S11301B01D0500001D0500001D0500001D050000B3
S11301C01D0500001D0500001D05000099300000FC
S11301D0A5300000B1300000BD3000006D280000E3
S11301E01D050000C9300000D5300000E1300000DA
S11301F0ED300000AD2800001D050000F9300000BE
S113020005310000113100001D310000ED2800000F
S11302101D05000029310000353100004131000086
S11302204D3100002D2900001D0500001D050000B2
S11302301D0500001D0500001D0500001D05000032
S11302401D0500001D0500001D0500001D05000022
S11302501D0500001D0500001D0500001D05000012
S11302601D0500001D0500001D0500001D05000002
S11302701D0500001D0500001D0500001D050000F2
S11302801D0500001D0500001D0500001D050000E2
S11302901D0500001D0500001D0500001D050000D2
S11302A01D0500001D0500001D0500001D050000C2
S11302B01D0500001D0500001D0500001D050000B2
S11302C01D0500001D0500001D0500001D050000A2
S11302D01D0500001D0500001D0500001D05000092
S11302E01D0500001D0500001D0500001D05000082
S11302F01D0500001D0500001D0500001D05000072
S11303001D0500001D0500001D0500001D05000061
S11303101D0500001D0500001D0500001D05000051
S11303201D0500001D0500001D0500001D05000041
S11303301D0500001D0500001D0500001D05000031
S11303401D0500001D0500001D0500001D05000021
S11303501D0500001D0500001D0500001D05000011
S11303601D0500001D0500001D0500001D05000001
S11303701D0500001D0500001D0500001D050000F1
S11303801D0500001D0500001D0500001D050000E1
S11303901D0500001D0500001D0500001D050000D1
S11303A01D0500001D0500001D0500001D050000C1
S11303B01D0500001D0500001D0500001D050000B1
S11303C01D0500001D0500001D0500001D050000A1
S11303D01D0500001D0500001D0500001D05000091
S11303E01D0500001D0500001D0500001D05000081
S11303F01D0500001D0500001D050000FFFFFFFF97
S1130400FFFFFFFFFFFFFFFFFFFFFFFFFE7FFFFF79
S1130410044B05481B1A062B02D9044B03B1184799
S1130420704700BF5799FF1F5499FF1F0000000039
S113043005490648091A891001EBD171491002D007
S1130440034B03B1184770475499FF1F5499FF1F7A
S11304500000000010B5064C237843B9FFF7D8FF1D
S1130460044B13B10448AFF300800123237010BD83
S11304700000002000000000A062000008B5084B46
S11304801BB108490848AFF300800848036813B952
S1130490BDE80840CCE7064B002BF9D09847F7E7B6
S11304A00000000004000020A06200005099FF1F1B
S11304B00000000072B64FF000014FF000024FF050
S11304C000034FF000044FF000054FF000064FF01A
S11304D00007B846B946BA46BB46BC460A490B4A69
S11304E0521A013A05DD0020042308601944043A35
S11304F0FBDA07488546074880470748804762B6C5
S113050004F00AF8FEE700000090FF1F00400020FE
S1130510004000202951000051500000FFF7FEBFA9
S1130520074B5B69DBB2042B06D0802B06D0012B72
S11305300CBF01200420704702207047032070473D
S113054000E00740044BD3F8003113F0807F1ABF5A
S1130550024B186800207047004006403401002018
S113056010B584B00B4600293BD0444AD2F8002190
S113057012F0007F7DD1414AD2F8001121F400012C
S1130580C2F800114FF08061C2F8001100213C4A0A
S11305901160002870D05A7A120202F4E062197ACB
S11305A001F007010A433548C0F80421DA79120141
S11305B002F030029979C90001F008010A4359791F
S11305C0890001F004010A43C0F808211A79012ABC
S11305D029D0E2B1022A32D01A68294B1A60294C78
S11305E03BE000238DF804308DF80C3001228DF8A7
S11305F008208DF809208DF805208DF80630022397
S11306008DF8073004AB204A43F8102DADE71A7B70
S1130610002A14BF4FF40002002242F001021749DD
S1130620C1F80021D8E71A7B002A14BF4FF4000256
S1130630002242F001121149C1F80021CCE71A7BD3
S1130640002A14BF4FF403024FF4403242F0010277
S11306500A49C1F80021BFE7013CFFF773FF18B94D
S1130660002CF9D1032005E0002C14BF0020032046
S113067000E0022004B010BD0020FBE7004006406B
S11306803401002088E7300000127A00084BD3F8C8
S1130690003213F0807F09D0054BD3F8083203F001
S11306A00103002B034808BF002070470020704757
S11306B00040064000127A0010B582B00B460029B3
S11306C038D02D4AD2F8002212F0007F4FD12A4AA6
S11306D0D2F8001221F40001C2F800120021C2F87D
S11306E00012002846D09A78120202F4E062597887
S11306F001F007010A432049C1F804221A7802F0E4
S11307000102C1F8082259799A791B79002B14BF88
S113071003230123002914BF042100210B43002AD1
S113072014BF4FF4000200221343134AC2F80032EC
S1130730642410E000238DF8043001228DF8052094
S11307408DF806308DF801208DF8022002AB03F8F5
S1130750082DB6E7013CFFF799FF18B9002CF9D131
S1130760032005E0002C14BF0020032000E0022039
S113077002B010BD0020FBE700400640054BD3F853
S1130780003313F0807F1DBF024BD3F808330248B7
S11307900020704700400640006CDC0210B582B0B7
S11307A00B46002932D0294AD2F8002312F0007FE8
S11307B047D1264AD2F8001321F40001C2F80013ED
S11307C04FF08061C2F8001300283DD09A781202DD
S11307D002F4E062597801F007010A431B49C1F8A9
S11307E004231A7802F00302C1F808239A795B798A
S11307F0002B14BF01230923002A14BF4FF4000265
S113080000221343C1F8003314240EE001238DF8B1
S1130810053000228DF806208DF801308DF8023065
S113082002AB03F8082DBEE7013CFFF7A7FF18B998
S1130830002CF9D1032005E0002C14BF0020032074
S113084000E0022002B010BD0020FBE7004006409B
S113085008B50F4BD3F8003613F0807F02D1002384
S1130860184608BDFFF76EFE03460028F8D0084975
S1130870D1F80826C2F302220132B0FBF2F3D1F818
S11308800826C2F30442103203FB02F35B08E7E7D5
S11308900040064010B584B00C4699B13D4BD3F8E6
S11308A0003613F0007F72D13A4BD3F8002622F4BD
S11308B00002C3F800264FF08062C3F80026A0B9F6
S11308C0002065E000238DF804308DF80B30012200
S11308D08DF808208DF809208DF8053007228DF851
S11308E006208DF8073001ACD8E7FFF72BFE6379BB
S11308F01B0203F4E063227902F007021343254943
S1130900C1F8043663781B0203F4E063A27812048E
S113091002F4F8121343C1F808362378012B16D0D9
S11309204BB1022B1FD04FF47A74FFF791FF48BBF1
S113093034B3013CF9E7E379002B14BF4FF400030F
S1130940002343F00103134AC2F80036EBE7E379CE
S1130950002B14BF4FF40003002343F001130D4A8E
S1130960C2F80036DFE7E379002B14BF4FF403032A
S11309704FF4403343F00103064AC2F80036D2E78D
S1130980032005E0002C14BF0020032000E0022017
S113099004B010BD004006402DE9F04180460D46EC
S11309A08C7801344E7806FB04460F7807FB044725
S11309B0CB78013B052B1CD8DFE803F00312151B91
S11309C01B18FFF7BFFD0009B8F1020F4AD0B8F1B8
S11309D0030F7CD0B8F1010F0DD00020BDE8F081E9
S11309E0FFF754FEEFE7FFF7C9FEECE7FFF730FF30
S11309F0E9E70020E7E7EA7802EB42015D4B53F8B0
S1130A0021301B0904FB03F4A04200F298800B463A
S1130A10584901EB83035B681B0906FB03F6B042EC
S1130A2000F2908002EB420301EB83039B681B09F5
S1130A3007FB03F7B84200F28880AB781B0403F489
S1130A407023120602F0706213432A7802F00F0238
S1130A5013436A781201D2B21343474A5361002008
S1130A60BDE8F081EA7802EB4201424B03EB8103DB
S1130A705B6D1B0904FB03F4A04269D80B463D4996
S1130A8001EB83039B6D1B0906FB03F6B04262D89E
S1130A9002EB420301EB8303DB6D1B0907FB03F746
S1130AA0B8425BD8AB781B0403F47023120602F03F
S1130AB0706213432A7802F00F0213436A7812011A
S1130AC0D2B213432C4A93610020BDE8F081EB7845
S1130AD003EB4301274A02EB8102D2F8A820120952
S1130AE004FB02F4A0423CD80A46224901EB8202EC
S1130AF0D2F8AC20120906FB02F6B04234D803EB5C
S1130B00430201EB8202D2F8B020120907FB02F77C
S1130B10B8422CD8AA78120402F470221B0603F0FF
S1130B20706313432A7802F00F0213436A781201A8
S1130B30D2B21343104AD3610020BDE8F0810120F2
S1130B40BDE8F0810120BDE8F0810120BDE8F0811D
S1130B500120BDE8F0810120BDE8F0810120BDE85D
S1130B60F0810120BDE8F0810120BDE8F081012081
S1130B70BDE8F081146000000040064038B5054629
S1130B80FFF7CEFC2946FFF707FF044658B9E8787B
S1130B900A220849013A0B69C3F30363984204D05B
S1130BA0002AF7D10324204638BD002A08BF0324B5
S1130BB0F9E700BF0040064010B504461B4B1B6913
S1130BC0C3F30363013B052B1DD8DFE803F00313D4
S1130BD0161C1C19FFF7B6FC144B1B69C3F3034323
S1130BE00133B0FBF3F0012C0FD0ECB1022C14D084
S1130BF0002010BDFFF74AFDEEE7FFF7BFFDEBE76E
S1130C00FFF726FEE8E70020E6E7084B1B69C3F37D
S1130C1003130133B0FBF3F010BD044B1B6903F065
S1130C200F030133B0FBF3F010BD00BF00400640DA
S1130C3008B50F4B1B6AC3F30363062B15D8DFE813
S1130C4003F004080B0E141411000220FFF7B4FF84
S1130C5008BDFFF777FC08BDFFF718FD08BDFFF7D7
S1130C608DFD08BDFFF7F4FD08BD002008BD00BFE1
S1130C700040064008B541B1012931D000200246A8
S1130C8010B1431E22FA03F008BD0438032852D8D9
S1130C90DFE800F00B02141DFFF770FD0246294B3C
S1130CA0D3F8040300F00700EAE7FFF7EFFC02467D
S1130CB0244BD3F8040200F00700E1E7FFF742FCFD
S1130CC00246204BD3F8040100F00700D8E7FFF7F1
S1130CD0BFFD02461B4BD3F8040600F00700CFE724
S1130CE0043803282AD8DFE800F00B02141DFFF7AC
S1130CF045FD0246134BD3F80403C0F30220BFE7BB
S1130D00FFF7C4FC02460F4BD3F80402C0F30220E1
S1130D10B6E7FFF717FC02460A4BD3F80401C0F309
S1130D200220ADE7FFF794FD0246064BD3F8040614
S1130D30C0F30220A4E700200246A1E700200246F7
S1130D409EE700BF0040064008B5114B1B69C3F382
S1130D500113032B19D8DFE803F002071013002155
S1130D600620FFF787FF08BD094B186900F0020051
S1130D70002818BF4FF4FA4008BD064B186808BD98
S1130D8000210520FFF776FF08BD002008BD00BF45
S1130D90008004403801002038B51D4B03EB4000AF
S1130DA0B0F8FC309B0003F1804303F5CA231D68AF
S1130DB0C5F3C0051C6804F00704AC4225D31868C9
S1130DC0C0F3807010B31B68C3F30263013B052BAF
S1130DD019D8DFE803F0030C101818140620FFF7E5
S1130DE049FF0134B0FBF4F005FB000038BD0420DA
S1130DF0FFF740FFF5E70520FFF73CFFF1E7072089
S1130E00FFF738FFEDE70020EBE7002038BD00BF17
S1130E10146000000F4B1B69C3F38103022B07D03E
S1130E20032B0ED0002B0CBF4FF4FA300020704778
S1130E30084B186900F00200002818BF4FF4FA406C
S1130E407047044B186900F00200002818BF4FF4E3
S1130E50FA4070470080044008B5244B5B6813F4E3
S1130E60006F40D0214B5B68C3F303130E2B09D8EA
S1130E70DFE803F00A080D081208171C20252F08C4
S1130E8029082C00002026E0FFF7D2FE23E00121F0
S1130E900620FFF7EFFE1EE001210420FFF7EAFE23
S1130EA019E001210520FFF7E5FE14E00020FFF71B
S1130EB083FE10E001210720FFF7DCFE0BE0012098
S1130EC0FFF77AFE07E0FFF7A5FF04E0FFF73CFF1A
S1130ED001E04FF4FA30054B5B68C3F3022301339E
S1130EE0B0FBF3F008BD002008BD00BF0080044043
S1130EF030B583B00546FFF7ABFC88B1062D56D05C
S1130F0006238DF8073002238DF8063001238DF86F
S1130F10053002A800F8043DFFF730FE044600E067
S1130F200124FFF72BFC10B1032D4AD074B9FFF74D
S1130F3009FB10B1012D4DD0D4B9FFF7A7FB10B1B7
S1130F40022D00D01CBB204603B030BD03238DF816
S1130F50073000228DF8062001228DF8052002A812
S1130F6000F8043DFFF70AFE0446E0E70124E3E746
S1130F7001238DF8073000228DF806208DF8053006
S1130F8002A800F8043DFFF7F9FD0446D5E7022363
S1130F908DF8073000238DF806308DF8053002A84F
S1130FA0012300F8043DFFF7E9FD0446CBE7FFF712
S1130FB0E5FB0028CAD1FFF7C5FA0028D6D10124E1
S1130FC0BBE7FFF7BFFA0028B6D1FFF75FFB0028A5
S1130FD0B8D1B8E7FFF75AFB0028B3D1B3E7174BF2
S1130FE01B69C3F30363013B052B06D8DFE803F059
S1130FF0031D200505230123C37010490A69104B02
S1131000C2F303121A4492F89C2142700A69C2F393
S113101003421A4492F89C2182700A6902F00F027A
S1131020134493F89C31037070470223C370E4E7C0
S11310300323C370E1E70623C370DEE700400640E4
S11310401460000001383F282DD8DFE800F02A287A
S11310502C262C2C2C242C2C2C2C2C2C2C222C2CE4
S11310602C2C2C2C2C2C2C2C2C2C2C2C2C202C2CC8
S11310702C2C2C2C2C2C2C2C2C2C2C2C2C2C2C2CAC
S11310802C2C2C2C2C2C2C2C2C2C2C2C2C2E0620CC
S113109070470520704704207047032070470220E2
S11310A07047012070470020704707207047F0B553
S11310B0A1B028B304460646002800F0FE80644B25
S11310C01B69C3F30363032B00F0C880FFF756FBCF
S11310D0002800F0B48003238DF8073000228DF837
S11310E0062001228DF8052020A800F87C3DFFF79A
S11310F045FD0546002800F0B180284621B0F0BD2A
S113110001238DF80B3000228DF80C208DF80D3062
S11311108DF80E208DF808308DF809308DF80A30DE
S11311208DF816308DF814308DF815208DF80F20B9
S11311308DF810308DF811308DF838300D928DF80F
S11311402530444906918DF81C208DF824208DF813
S11311501D308DF81E2002208DF81F008DF82030E0
S11311608DF821308DF830308DF828208DF82F201F
S11311708DF829200C218DF82A108DF82B208DF85C
S11311802C308DF82D308DF83D3003218DF83C1036
S11311908DF84B308DF841108DF840208DF83F309C
S11311A08DF83E308DF845008DF844308DF843209D
S11311B08DF8421006208DF849008DF848208DF8EE
S11311C047308DF8461024491E9120211D918DF839
S11311D04C308DF84D208DF84E208DF84F208DF831
S11311E050308DF854308DF853308DF852208DF8EE
S11311F051208DF868308DF869308DF86A308DF89B
S11312006B308DF86C308DF86D308DF873308DF84F
S113121058301792189219928DF86E308DF86F30FD
S11312208DF870208DF871208DF872208DF87C3047
S11312308DF87D308DF87E2002AE34463FE70021E4
S11312400120FFF7ABFA054600287FF456AF42E7CA
S11312500040064000127A000094FF1F3146E078F7
S1131260FFF72AFA0546002800F02881FFF758F90D
S1131270022800F05D81032800F05D81012800F060
S11312803781002D7FF439AF94F8303013B1E26A1E
S1131290AA4B1A6094F8353053B1A9490A6A22F06E
S11312A0706294F834301B0603F0706313430B62CE
S11312B094F84330002B40F0AA8114F16C0F3AD01B
S11312C0236F002B37D0E36E002B34D000219D48D0
S11312D09D4D01EB8102236F9B5C00EB4303B3F84C
S11312E0FC309B0003F1804303F5CA231E6826F0FB
S11312F080461E60236F9F189E5CBB781B0603F01C
S1131300E063FA78D20002F0080213433A7902F05B
S1131310070213437A78002A14BF4FF08042002258
S1131320134300EB4606B6F8FC2045F822300131A1
S1131330E36E9942CDD394F84430C3B194F8463067
S113134094F847208149496821F47F6194F8450065
S1131350002814BF4FF4006000201B01DBB212020E
S113136002F4E06213430B430343784A536094F856
S11313704830DBB194F84A3094F84920734909693C
S113138021F03F0194F84C00084394F84B100029D5
S113139014BF022100219B0003F00C03034312013C
S11313A002F0300213430B43684A136194F860302F
S11313B0002B37D0654B196C21F0010194F86120A2
S11313C00A431A641B6C23F0020394F86220002A77
S11313D014BF0222002213435C4A1364136C23F0EB
S11313E0040394F86320002A14BF04220022134348
S11313F0564A1364136C23F0080394F86420002AFB
S113140014BF082200221343504A1364136C23F0C0
S1131410100394F86520002A14BF102200221343FD
S11314204A4A136494F8503033B1494B626D1A60E0
S1131430A26D5A60E26D9A6094F86630EBB1434A4B
S1131440936E00209066516821F4805194F86830BE
S11314501B0303F480530B435360906694F8673086
S11314605BB194F869305B0003F00E0394F86A20D2
S113147042F080521343354A936694F87430002B3B
S113148000F0E18033498B7803F07F0394F87520F2
S113149082F0010243EAC213DBB28B7094F9763016
S11314A0002BBCBF20335BB22A490A7903F01F0327
S11314B002F0E00213430B7100251EE604F1100153
S11314C0607FFFF74DF8054600287FF4CFAE04F1A6
S11314D0200194F82800FFF7DDF90546FFF720F80E
S11314E0022825D0032826D0012801D0002601E0B7
S11314F004F13606002D7FF4C4AEF378032B2BD011
S11315008DF80730B3788DF8063073788DF8053090
S1131510337820A800F87C3DFFF730FB054600280F
S11315207FF4AFAEE11DA07BFFF738F90546A8E6CE
S113153004F13A06DEE704F13E06DBE73801002059
S11315400040064014600000005006400080044043
S11315503C01002000D0074094F828300BBB637F87
S113156093BBE378002B42D10125002D7FF489AE93
S1131570E11DA07BFFF712F9054600287FF481AE38
S1131580F3788DF80730B3788DF8063073788DF8DA
S11315900530337820A800F87C3DFFF7EFFA0546C4
S11315A06FE606238DF8073002238DF806300123F9
S11315B08DF8053020A800F87C3DFFF7DFFA0546DA
S11315C0637F7BB10128D0D101238DF8073000223D
S11315D08DF806208DF8053020A800F87C3DFFF733
S11315E0CDFA0546E378002BBFD0012DBDD10223EF
S11315F08DF8073000238DF806308DF8053020A8CB
S1131600012300F87C3DFFF7B9FA0546ADE704F184
S113161036010120FFF7C0F9054600287FF46DADBF
S113162004F13A010220FFF7B7F9054600287FF4D8
S113163064AD04F13E010320FFF7AEF9054600282E
S11316407FF45BAD39E6002557E570B504460D46D9
S1131650112807D9232840F285804D2840F24F8174
S1131660042070BD11287AD8DFE800F00913191F8F
S113167024292E33383C41484F565D646B72002058
S1131680FFF79AFA03460020002D00F0AF812B608B
S113169070BD0120FFF790FA03460020F4E7022012
S11316A0FFF78AFA03460020EEE7FFF7D5FB03466F
S11316B00020E9E7FEF7EAFF03460020E4E7FFF72E
S11316C05DF803460020DFE7FEF73CFF03460020F9
S11316D0DAE7FFF7BDF803460020D5E7A94B1B68FE
S11316E00020D1E7FFF7A4FA03460020CCE700214D
S11316F00420FFF7BFFA03460020C5E701210420B8
S1131700FFF7B8FA03460020BEE700210520FFF7E3
S1131710B1FA03460020B7E701210520FFF7AAFA32
S113172003460020B0E700210620FFF7A3FA034692
S11317300020A9E701210620FFF79CFA03460020B8
S1131740A2E700210720FFF795FA034600209BE754
S113175001210720FFF78EFA0346002094E70023B7
S1131760042091E7A0F115040E2C00F29980DFE823
S113177004F00814202B353E434F5A656D767F875D
S11317808F00814BDB68C3F30163022B00F28B8073
S11317907E4A52F82330002024E07B4BDB68C3F3FD
S11317A08163022B00F28280784A52F823300020B1
S11317B018E0754BDB68C3F30173022B79D8734AC5
S11317C052F8233000200DE06F4BDB689B0F022B97
S11317D072D86E4A52F82330002003E0FFF73CFB36
S11317E003460020002D00F001812B6070BDFFF73F
S11317F0ABFA03460020F5E7654B9B78DB0902D082
S113180000231846EEE7FFF705FB03460020E9E74F
S11318105F4B9B78DB0952D15B4B1B6913F00103CF
S113182050D10020DEE75A4B9B78DB094ED1564B52
S11318301B6913F002034CD10020D3E7544B9B786F
S1131840DB094AD14FF4FA330020CBE74E4B1B6C33
S1131850C3F30013002B43D14FF48070C2E74A4B0B
S11318601B6CC3F3C003002B3DD14FF48070B9E768
S1131870454B1B6CC3F38003C3BB4FF48070B1E7CB
S1131880414B1B6CC3F340039BBB4FF48070A9E72F
S11318903D4B1B6C13F001032ED14FF48070A1E774
S11318A0002304209EE7002318469BE700231846E4
S11318B098E70023184695E70023184692E700238B
S11318C018468FE74FF47A7300208BE700231846FD
S11318D088E74FF4FA43002084E70023184681E7A1
S11318E0002318467EE7002318467BE700231846AA
S11318F078E70023184675E70023184672E7242882
S113190005D804200023002D70D02B6070BDA0F1F9
S11319103303DBB21A2B07D81E4A22FA03F313F05F
S1131920010F18BF0420EDD11B4B03EB4403B3F8A4
S1131930FC201A4B53F8223013F0804F43D14FF45C
S11319408070DFE70120FFF737F9002848D1002332
S11319504FF48070D7E70020FFF72EF90028F6D067
S11319603EE00220FFF728F90028F0D038E016F016
S1131970080F15D116F0100F1AD100234FF4807000
S1131980C1E700BF38010020008004403C01002072
S113199000D00740412100041460000000500640BC
S11319A000212046FFF7F8F9034616F0100F04D083
S11319B001212046FFF7F0F90346002B14BF002055
S11319C04FF480709FE70A4B234493F8AC6116F000
S11319D0200FB7D116F0400FBDD116F0800FC0D143
S11319E016F0180FC3D1002318468CE770BD00BF52
S11319F01460000070B582B004460D4689B1554BA1
S1131A00234493F8AC3113F0010F63D113F0180F92
S1131A1030D06A78043A032A5AD8DFE802F0232542
S1131A20272901238DF80030FEF730FE48B1042346
S1131A308DF801300123ADF80230ADF804306D4665
S1131A40DDE7FEF79BFE08B10523F1E7FEF700FF93
S1131A5008B10723ECE7FEF775FD002814BF062341
S1131A604F23E5E7022206E0032204E0012202E01C
S1131A70062200E0002213F0040F1ABFAE8806F11C
S1131A80FF36002613F0020F1ABF698801F1FF31F7
S1131A900021304B03EB4404B4F8FC40A30003F1F1
S1131AA0804303F5CA23186820F0804018602B781F
S1131AB063B1120642F0804206F007063243C900C1
S1131AC001F008010A43244B43F8242002B070BDFE
S1131AD00022D0E72B781F3C042CF7D8DFE804F071
S1131AE02E22160A03001D490A6C22F00102134338
S1131AF00B64EBE7194A126C22F00202002B14BFAC
S1131B00022300231343154A1364DFE7134A126CBC
S1131B1022F00402002B14BF0423002313430F4AB2
S1131B201364D3E70D4A126C22F00802002B14BF91
S1131B30082300231343094A1364C7E7074A126CB6
S1131B4022F01002002B14BF102300231343034A76
S1131B501364BBE71460000000500640008004409A
S1131B6070B582B005460C46FEF7DAFC06469DB118
S1131B702B68022B0ED0042B10D0012B0CBF012597
S1131B8004256CB12378043B032B4AD8DFE803F027
S1131B904B4345470225F4E70546F2E70325F0E702
S1131BA0FEF7ECFD58B103238DF8073000228DF8C1
S1131BB0062001228DF805208DF8043049E0FEF757
S1131BC047FE58B106238DF8073002238DF80630FE
S1131BD001238DF805308DF804303AE0FEF7B2FCAD
S1131BE050B101238DF8073000228DF806208DF8BE
S1131BF005308DF804302CE0FEF748FD48B302238D
S1131C008DF8073000238DF806308DF80530012358
S1131C108DF804301DE0032306E0012304E00623CD
S1131C2002E0FF2300E002238DF807300F4B6288A7
S1131C301A4492F8FC218DF80620A2881A4492F8DE
S1131C40FC218DF80520E288134493F8FC318DF8CB
S1131C500430B54205D001A92846FEF79DFE02B026
S1131C6070BD01A8FEF78AFFF9E700BF1460000009
S1131C70154B1B69C3F30363013B052B20D8DFE835
S1131C8003F00316191F1F1C062303700E4A136961
S1131C90C3F30343013343801369C3F303130133D1
S1131CA08380136903F00F030133C3807047042357
S1131CB00370EBE705230370E8E707230370E5E708
S1131CC004230370E2E700BF004006402DE9F04121
S1131CD086B004460D4631B38889FFF7B3F98046D0
S1131CE0E889FFF7AFF907462E78201F172800F27E
S1131CF03881DFE810F01C0057008F00E400360143
S1131D003601360136013601360136013601360117
S1131D103601360136013601360136013601360107
S1131D20360136011C010127B8463E46DDE78E4BDD
S1131D301B69C3F30363022B1FD0002465B3012383
S1131D408DF80D308DF80C3000228DF80E208DF8B2
S1131D5009808DF80A7006A901F8103D3046FEF797
S1131D60ABFC0346002B40F0E980002C00F0E68039
S1131D7001A8FEF703FF0346E0E00EB90123DDE00E
S1131D8001A8FFF72CF90220FFF7B2F80346002858
S1131D9040F0D4803446D1E700210120FEF78CFCCA
S1131DA00346DFE7704B1B69C3F30363032B1CD0AB
S1131DB000244DB300238DF80E308DF809808DF882
S1131DC00A708DF808308DF80D3002A93046FEF700
S1131DD0E5FC0346002B40F0B180002C00F0AE80FF
S1131DE001A8FEF7CBFE0346A8E00EB90123A5E047
S1131DF001A8FFF7F4F80320FFF77AF80346002858
S1131E0040F09C803446D4E700213046FEF7C6FCFF
S1131E100346DFE7544B1B69C3F30363012B2FD045
S1131E200024002D3AD06B68029300228DF80C2018
S1131E308DF814208DF810808DF811706A78012ABD
S1131E4014BF002201228DF80D2000228DF80E20EF
S1131E50A3F57412A2F5106244498A4224D80223DD
S1131E608DF80F3002A93046FEF77AFB0346002BAB
S1131E7064D1002C62D001A8FEF780FE03465DE029
S1131E800EB901235AE001A8FFF7A9F80120FFF7D2
S1131E902FF80346002851D13446C2E700213046CA
S1131EA0FEF75EFB0346E2E7A3F5F403A3F59053C4
S1131EB02F4A93429CBF03238DF80F30D2E72A4B5D
S1131EC01B69C3F30363062B1ED000244DB3002308
S1131ED08DF808308DF80F308DF80C808DF80D706A
S1131EE0AB7A013B8DF809302B7A103B8DF80A3020
S1131EF002A93046FEF7CEFC0346FBB9F4B101A8B3
S1131F00FEF73CFE034619E00EB9012316E001A8D2
S1131F10FFF765F80620FEF7EBFF034670B9344679
S1131F20D4E700213046FEF7B5FC0346E5E74EB999
S1131F30104A937843F0800393700023184606B048
S1131F40BDE8F0810C4A136923F03F0343F0030317
S1131F50136102F55432937803F07F0393700023E6
S1131F60ECE70023EAE700BF0040064000093D001B
S1131F700048E80100D007400080044010B4054C3C
S1131F8020602171A2602373637300205DF8044B09
S1131F90704700BF1C000020F0B583B007460E4612
S1131FA08DF804008DF8051001F0B8FE334B1C7B4E
S1131FB05C7301238DF80630002C4AD000242F4D89
S1131FC004E00134E4B22B7BA34242D9AB6853F85A
S1131FD02430002BF5D01A79022AF2D01A689968B5
S1131FE001A890470028ECD06C73002EE9D140F290
S1131FF0031500238DF80630A400204E20E00134A0
S1132000E4B23B7BA34212D9BB6853F82430002BC3
S1132010F5D01A79012AF2D01A68996801A8904774
S11320200028ECD07C73002EE9D14FF4827501F0C6
S113203067FE284603B0F0BD043C14F1040FF6D04B
S1132040B3681B59002BF7D01A68996801A8904708
S1132050F2E70A4D2B6853F82700FFF728F86F7151
S113206005460028C5D102238DF80630034B1B7B9F
S1132070002BDCD00024014FC6E700BF1C00002069
S1132080014B5879704700BF1C000020054B5A7B58
S11320901B79934283BF034B9B6853F822000020B3
S11320A0704700BF1C00002008B5FFF7CEFA08BD3A
S11320B008B5FEF7FCFF08BD10B50446044B53F801
S11320C0200000F067FC0020024B43F8240010BD00
S11320D0246200002C0000200122027000234370BF
S11320E08370C370037143718371C371037243724C
S11320F08272C2720321017343738273C1730374C6
S113210043747047064B53F820301966996DD20119
S1132110D2B221F080010A439A650020704700BFC3
S113212024620000084B53F82000C36C1B0C1B04F2
S11321301943C164836DD201D2B223F080031A43E0
S113214082650020704700BF24620000064B53F8EC
S11321502030C3F89C10996DD201D2B221F08001D5
S11321600A439A65002070472462000010B40C4BA7
S113217053F820301C6FD3F894006140C9B220F4A6
S11321807F4040EA0120C3F89400996DD201D2B295
S113219021F080010A439A6500205DF8044B7047E2
S11321A024620000094B53F82000D0F8943023F047
S11321B0FF031943C0F89410836DD201D2B223F007
S11321C080031A4382650020704700BF2462000028
S11321D010B40A4C54F82040206F424041EA0222D5
S11321E092B2C4F89420A26DDB01DBB222F080022B
S11321F01343A36500205DF8044B7047246200007C
S1132200064B53F82030C3F89010996DD201D2B226
S113221021F080010A439A6500207047246200007F
S1132220084B53F8200083681B0C1B04194381607E
S1132230836DD201D2B223F080031A438265002059
S1132240704700BF246200000B4B53F8203003EBAF
S1132250C101C868930003F0040320F004000343A1
S1132260CB60CB68920002F0080223F008031A4303
S1132270CA600020704700BF246200004B782BB96D
S11322808B78002B40F0A480CB7800E0012303F08E
S113229001030A78002A00F0C980002B40F09680E0
S11322A0644B53F82030002A00F09B80D3F88C2034
S11322B042F48062C3F88C20D3F88C2042F400628C
S11322C0C3F88C20D3F88C2042F48052C3F88C20BD
S11322D0D3F88C2042F40072C3F88C20D3F88C001D
S11322E0CA7A120202F4807220F480700243C3F8A6
S11322F08C20D3F88C2042F08002C3F88C204A78DA
S113230022B99A6D22F010029A6503E09A6D42F0A8
S113231010029A658A78002A4ED09A6D42F0200203
S11323209A65CA78002A4CD09A6D42F040029A65A8
S1132330986D0A79520002F0020220F00200024372
S11323409A659A6D22F00102487902439A659A6D62
S1132350087A003018BF012022F0080242EAC002C5
S11323609A65D3F88C008A79120102F0100220F0E9
S113237010000243C3F88C20D3F88C00CA795201B0
S113238002F0200220F020000243C3F88C20D3F88E
S11323908C004A7A920002F0040220F00400024306
S11323A0C3F88C20D3F88C2022F00102897A0A43E6
S11323B0C3F88C20002070479A6D22F020029A65A1
S11323C0AFE79A6D22F040029A65B1E701207047A9
S11323D00A78002A3FF464AF01207047154B53F884
S11323E02030D3F88C2042F48022C3F88C20D3F818
S11323F08C2042F40022C3F88C20D3F88C2042F4C1
S11324008012C3F88C20D3F88C2042F40032C3F835
S11324108C20D3F88C20C87A003018BF012022F415
S1132420803242EA0042C3F88C2062E7002BD5D107
S11324300120704724620000032888BF0730044A43
S1132440D169012303FA00F00843D06100207047EA
S113245000800440F8B507460D46254B53F820602C
S1132460CCB211F4007F0CD115F4807F14D115F493
S1132470806F1CD1002C38D000251D4B03EBC707FF
S113248023E0336843F480733360194B034493F9B6
S1132490100001F01BFCE7E7736D43F080037365E4
S11324A0134B3B4493F9140001F010FCDFE733684D
S11324B043F0400333600E4B3B4493F9180001F0A2
S11324C005FCD7E7013564080FD014F0010FF9D0EB
S11324D0EBB206EBC301CA6842F04002CA603B4457
S11324E093F91C0001F0F2FBECE70020F8BD00BFFB
S11324F024620000F8B507460D46244B53F82060CB
S1132500CCB211F4007F0CD115F4807F14D115F4F2
S1132510806F1CD1002C38D000251C4B03EBC7075F
S113252023E0336823F480733360184B034493F936
S1132530100001F0D7FBE7E7736D23F080037365A8
S1132540124B3B4493F9140001F0CCFBDFE73368F2
S113255023F0400333600D4B3B4493F9180001F022
S1132560C1FBD7E7013564080FD014F0010FF9D08F
S1132570EBB206EBC301CA6822F04002CA603B44D6
S113258093F91C0001F0AEFBECE7F8BD24620000F7
S113259010B4154B53F820100B6803F48073002B10
S11325A00CBF00204FF400704B6D13F0800F18BF68
S11325B040F480700B6813F0400F18BF40F4806043
S11325C0072301245A1C01EBC202526812F0400F87
S11325D01CBF04FA03F21043013BB3F1FF3FF1D1F6
S11325E05DF8044B704700BF2462000010B4154B23
S11325F053F82010086800F400704B6F13F0800F3C
S113260018BF40F480700B6813F0800F18BF40F4BB
S11326108060CB6E13F0800F18BF40F4006000237D
S113262001245A1C01EBC202526812F0800F1CBF35
S113263004FA03F210430133082BF2D15DF8044B82
S1132640704700BF2462000030B4214B53F82000CF
S1132650CAB211F4007F04D0036823F4007303604A
S1132660036811F4807F10D0436F23F08103436724
S1132670436F23F082034367436F23F0840343676C
S1132680436F23F088034367436F11F4806F04D0D2
S1132690036823F080030360036811F4006F03D020
S11326A0C36E23F08003C3660023012503E05208B0
S11326B00133082B0AD012F0010FF8D0016D05FA8E
S11326C003F421EA04010165016DF0E730BC7047B1
S11326D02462000070B582B005461C4B53F82030CC
S11326E000220192186800F0070001248440184B6E
S11326F053F825301B78022B1ED0032B07D0012B57
S11327001FD0E4B20198B0FBF4F002B070BD0F4BDF
S113271003EB450393F83D6001A93046FFF7C4FC81
S1132720019B23B9094B03EB450595F83C6001A9CE
S11327303046FFF7B9FCE4E701A91A20FFF7B4FC1F
S1132740DFE701A90020FFF7AFFCDAE7246200000D
S11327502C000020F8B5354B53F8203013B1012775
S11327603846F8BD324B53F820508B7B137000234E
S1132770537053802D4B43F8202002F1080702F1D7
S1132780180402F1580E02F1380C2646002327F8EB
S1132790023B46F8043B4CF8043B0EF8013BA742CD
S11327A0F5D117460C460646284600F0F3F8617B3F
S11327B0284600F0E3F83046FFF78CFF7860237B6F
S11327C0023BDBB2022B20D90027EA6E637C9B011B
S11327D003F0400322F040021343EB66D5F8842053
S11327E0E37B9B01DBB222F0C0021343C5F88430C3
S11327F0237C83B92B6823F480732B600C48064434
S113280096F9100001F06EFAAAE721463046FFF768
S113281035FD0746D9E72B6843F480732B600448E1
S1132820064496F9100001F051FA99E72C000020B3
S113283024620000034B53F820305868B0FBF1F0D9
S113284080B270472C000020074B53F820205368B7
S11328501B0C1B045360936DC901C9B223F08003A0
S11328601943916500207047246200002DE9F0416E
S113287000240C4E0127DFF8308002E00134042CE0
S11328800DD0736F07FA04F52B42F7D058F82430B3
S11328909847736F23EA05057567736FEEE7BDE824
S11328A0F08100BF00800340400000202DE9F0418A
S11328B00C4D00240C4F4FF0010803E001340435A3
S11328C0042C0CD07B6F08FA04F63342F6D02B6844
S11328D098477B6F23EA06067E677B6FEEE7BDE8C9
S11328E0F08100BF50000020009003402DE9F0412A
S11328F00C4D00240C4F4FF0010803E00134043563
S1132900042C0CD07B6F08FA04F63342F6D02B6803
S113291098477B6F23EA06067E677B6FEEE7BDE888
S1132920F08100BF6000002000A003402DE9F041C9
S11329300C4D00240C4F4FF0010803E00134043522
S1132940042C0CD07B6F08FA04F63342F6D02B68C3
S113295098477B6F23EA06067E677B6FEEE7BDE848
S1132960F08100BF700000200060024001EB800194
S1132970014B43F82120704740000020436D43F091
S113298001034365036823F0070301F007010B43C8
S11329900360704710B4436F002343670422426509
S11329A00268036043608360C364026D03658365EA
S11329B0C365036643668366C26EC3660367836743
S11329C0C367C0F88030C0F88430C0F88830C0F8DD
S11329D08C30C0F89030C0F89430C0F89830C0F80B
S11329E09C30194600EBC302D468D16011610133F5
S11329F0082BF7D15DF8044B704701290ED905293E
S1132A0099BF0239012306394FF4807303FA01F1A7
S1132A1042B9C36E23EA0101C1667047102303FA69
S1132A2001F1F5E7C36E1943C1667047032923D842
S1132A30DFE801F0020A121B836F23F00F0302F098
S1132A400F021A4382677047836F1201D2B223F0D8
S1132A50F0031A4382677047836F120202F47062B4
S1132A6023F470631A4382677047836F120392B230
S1132A7023F470431A43826770470000F8B52B4B68
S1132A8053F820305A78012A00D0F8BD284A52F869
S1132A9020004A00D2B2456EC900042404FA01F1B0
S1132AA029422ED000EBC2052E69B6B2511CC9B220
S1132AB000EBC1010C69A4B2A6421DD98768101DA0
S1132AC0A41B3C4423F81040E86820F08000E86030
S1132AD0E868C86820F08000C860C96803EB820118
S1132AE08C6B002CD1D0134493F85830002BCCD0ED
S1132AF089690020A047C8E7101DA41B23F81040D3
S1132B00E2E7511C00EBC101496811F0800F04BFDA
S1132B100132D2B200EBC2000469111D23F8114046
S1132B20C16821F08001C160C168D7E72C00002092
S1132B30246200002DE9F04F83B0AF4B53F820908E
S1132B40B9F1000F00F0D08099F80130002B40F06B
S1132B50CD80AA4B53F82080D8F8003023F0180316
S1132B60C8F80030D8F84C301B0C1B04C8F84C30A3
S1132B70D8F808301B0C1B044A881343C8F80830E3
S1132B80D8F8003023F02003C8F80030D8F86430B7
S1132B9023F08003C8F86430D8F8643023F00103CC
S1132BA0C8F864300B78002B00F014810F460190B4
S1132BB00025934B03EBC00B10E000222146404656
S1132BC0FFF734FF7B6833445A783AB3012A57D06D
S1132BD00135EDB23B78AB4240F2FC802E017B68BC
S1132BE09A199C5D4FEA540A936809EB8402936135
S1132BF07B683344DB68936309EB0403012283F8A5
S1132C005820032CDED87B6833449A79002AD4D028
S1132C101A7921464046FFF709FFD3E7D8F8643014
S1132C204FEACA024FF0040A0AFA02FA23EA0A0334
S1132C30C8F8643008EBC403DA6822F01002DA60E2
S1132C40DA6822F02002DA60D8687A681644B2782A
S1132C50910001F0040120F004000143D960D96817
S1132C60920002F0080221F008010A43DA60DA68EF
S1132C7042F04002DA601BF9040001F027F8A7E7EC
S1132C80D978D8795D4B019A53F822305A6E4FEABD
S1132C90CA0A042606FA0AF616435E665E6E08221F
S1132CA002FA0AF232435A6698B103EBC402D068BE
S1132CB040F01000D060D06840F02000D0600329BC
S1132CC019D001292FD0042954D002296AD0012611
S1132CD040E003EBC402D06820F01000D060D0685C
S1132CE040F02000D060EAE7012600E001263046EB
S1132CF003B0BDE8F08F03EBC402D16841F00401D6
S1132D00D160D16821F00801D160621CD2B203EB1A
S1132D10C202D16821F00401D160D16841F00801F8
S1132D20D160002616E003EBC402D16841F004012F
S1132D30D160D16821F00801D160621CD2B203EBEA
S1132D40C202D16841F00401D160D16821F00801C8
S1132D50D1600026621CD2B203EBC203DA6842F0EF
S1132D604002DA601BF9040000F0B0FF002E3FF4CB
S1132D702FAFBCE703EBC402D16821F00401D1609A
S1132D80D16841F00801D160621CD2B203EBC202E7
S1132D90D16841F00401D160D16821F00801D1600B
S1132DA00026D7E703EBC402D16821F00401D16007
S1132DB0D16841F00801D160621CD2B203EBC202B7
S1132DC0D16821F00401D160D16841F00801D160DB
S1132DD00026BFE7012389F80130D8F8002099F8CC
S1132DE00030DB0003F0180322F018021343C8F884
S1132DF0003000267BE700BF2C0000202462000086
S1132E00406200002DE9F84F304B53F82060304BFE
S1132E1053F820B0336823F018033360F36C1B0CB1
S1132E201B04F364B3686FEA13436FEA0343B360AC
S1132E30336823F0200333600B78002B34D08846AA
S1132E4000274FF0010A4FF0040920E0736EED00F3
S1132E500AFA05F223EA02037366736E09FA05F5AA
S1132E6023EA0505756606EBC404E36823F004034E
S1132E70E360E36823F00803E360E36823F04003BE
S1132E80E3600137FFB298F80030BB420CD9D8F8A0
S1132E9004203B01D45C6508032CD7D800222146CA
S1132EA03046FFF7C3FDD1E70BF118030BF13800EF
S1132EB00146002243F8042B41F8042B8342F9D144
S1132EC000208BF80100BDE8F88F00BF24620000E9
S1132ED02C000020044B53F820301BB1043133F88C
S1132EE011007047002070472C00002030B4184BAC
S1132EF053F8204004EBC100C368C3F30013C26855
S1132F00120902F002021343022B02D0012030BC4A
S1132F107047656E4B08DB0004229A402A4215D0A4
S1132F200131C9B204EBC101CA6822F08002CA604F
S1132F30CA68C26822F08002C260C268616E082258
S1132F4002FA03F30B4363660020E0E70020DEE7A8
S1132F502462000070B44F4C54F82000002A52D070
S1132F6014464A08651EEDB2022D59D9466ED200A8
S1132F700425954035434566466E082505FA02F258
S1132F8032434266002B71D000EBC103DA6842F091
S1132F901002DA60DA6842F02002DA60062C73D09C
S1132FA0042C74D0052C6CD00125022600EBC1033F
S1132FB0DC68B20002F0040224F004042243DA6064
S1132FC0DC68760824F0080444EAC604DC600131B5
S1132FD0C9B200EBC100C268A90001F0040122F0EB
S1132FE004021143C160C2686D0822F0080242EA7B
S1132FF0C502C260DA6822F04002DA60C36843F0B6
S11330004003C36009E000EBC101CB6823F0040373
S1133010CB60CB6823F00803CB60002070BC704702
S1133020436ED200042505FA02F223EA0202426644
S113303000EBC100C36823F01003C360C36823F02E
S11330402003C360C268A3002B4022F00402134390
S1133050C360C368A40004F0080423F008031C43FD
S1133060C460C36843F04003C360D6E700EBC10308
S1133070DA6822F01002DA60DA6842F02002DA60DC
S11330808CE702252E4691E7022501268EE70125CD
S11330902E468BE72462000008B500210846FFF79E
S11330A0EDFC08BD08B501210020FFF7E7FC08BDD1
S11330B008B502210020FFF7E1FC08BD08B5032193
S11330C00020FFF7DBFC08BD08B500210120FFF755
S11330D0D5FC08BD08B501210846FFF7CFFC08BDA3
S11330E008B502210120FFF7C9FC08BD08B503217A
S11330F00120FFF7C3FC08BD08B500210220FFF73B
S1133100BDFC08BD08B501210220FFF7B7FC08BDCE
S113311008B502210846FFF7B1FC08BD08B5032134
S11331200220FFF7ABFC08BD08B500210320FFF720
S1133130A5FC08BD08B501210320FFF79FFC08BDCD
S113314008B502210320FFF799FC08BD08B5032147
S11331500846FFF793FC08BD2DE9F0433F4B53F8B5
S113316020303F4A52F820801A6822F018021A6070
S113317000218E4601244FF0200C80271026402584
S113318003EBC102C2F810E0D06820F00400D06064
S1133190D06820F00800D060D06820F01000D06023
S11331A0D06820F02000D0601A6822F020021A6053
S11331B01A6F04FA01F022EA00021A671A6801F190
S11331C0100004FA00F022EA00021A60586EC1F3FB
S11331D04602D2000CFA02F920EA09005866586E39
S11331E007FA02F920EA09005866586E04FA02F94F
S11331F020EA09005866586E06FA02F920EA090026
S11332005866586E05FA02F220EA02025A66013143
S11332100829B5D19A6E22F470229A669A6E22F029
S1133220C00242F040029A669A6E22F03F029A6609
S11332300020D8675A6D22F080025A655A6D22F038
S113324060025A659A68120C12049A605A68120C49
S113325012045A6088F80100BDE8F083246200007B
S11332602C0000202DE9F041BDF818703C4C54F8B6
S113327020503C4C54F82060AC68A4B27078042808
S113328019D0032803BF0134A4B200200120CAB915
S1133290B3F5004F58D8B7F5004F58D804FB03F2E4
S11332A0C2F3CF3204FB07F7C7F3CF37B3F5004FB0
S11332B005D013460AE06400A4B20020E7E7531CDB
S11332C09BB203E09C4245D3BC4246D3002845D17F
S11332D04A08D5F864804FEAC20E4FF0010C0CFA8C
S11332E00EFC1CEA080F25D0D5F864C0802101FA31
S11332F00EFE1EEA0C0F07D0296811F0180F06D134
S113330005EB02110B6102E005EB02110B615300A6
S11333100133DBB2013305EBC3039F60AA6D9DF853
S11333201C30DB01DBB222F080021343AB657480F6
S1133330BDE8F0812A6812F0200F18BF5B08013144
S113334005EBC1018B60E9E70120BDE8F0810120B4
S1133350BDE8F0810120BDE8F0810120BDE8F081E5
S1133360246200002C0000202DE9F04F85B0A44B0E
S113337053F820300393002B00F0E9825B781BB1F3
S1133380012005B0BDE8F08F0D4602909D4B53F827
S11333902040236823F018032360236823F4007378
S11333A023602368636D43F0040363658B78039A99
S11333B053700B78002B00F0E8804FF000084FF0BA
S11333C001094FF0020A4FF0100B82E0216F09FA55
S11333D006F20A4322678EE004EBC602D16841F08C
S11333E00401D160D16821F00801D16094E0626EDB
S11333F0D9000BFA01F122EA010262669BE04979E5
S113340031B9216F09FA02F221EA0202226712E0BD
S1133410216F09FA02F20A4322670CE0216F09FACC
S113342002F20A43226706E0626ED9000AFA01F149
S113343022EA01026266626EDB000421994022EAFC
S113344001026266626E09FA03F122EA010262660F
S1133450626E8021994022EA0102626604EBC60290
S1133460D16841F01001D160D16841F02001D160F0
S11334706A69D278002A00F08180616E40229A4005
S11334800A436266616E202202FA03F30B43636609
S1133490EB683B441A7931462046FFF7AEFA2268BE
S11334A006F1100309FA03F313432360EB681F4486
S11334B0BB793BB12268731CDBB2103309FA03F306
S11334C01343236008F101085FFA88F82B78434519
S11334D05BD908EB88025700EB68D91913F812601E
S11334E073084A79002A7FF471AF226F09FA06F152
S11334F022EA01022267EA683A44517952789142F9
S11335003FF46AAF04EBC602D16821F00401D16034
S1133510D16841F00801D160EA683A449179002900
S113352082D0127A002A3FF462AF616EDA000BFA9D
S113353002F20A436266721CD2B204EBC201C8688A
S113354020F00400C860C86840F00800C860606EDD
S1133550D9000AFA01F101436166E9683944C8797E
S113356001283FF44CAF497900293FF457AF216F4C
S113357009FA02F221EA020222675CE7626E402144
S1133580994022EA010262667CE71E4B029A53F8D4
S113359022606B78002B00F00E814FF000094FF091
S11335A0010A4FF0040B82E0306F0AFA01F2024381
S11335B032678CE006EBC102D06840F00400D060B2
S11335C0D06820F00800D06092E0D6F870C00AFA03
S11335D002F040EA0C003067B4E0807A40B9706EC3
S11335E04FF0020C0CFA03FC20EA0C00706613E0A6
S11335F0D6F864C00220984040EA0C0070660BE0E4
S11336002C00002024620000706E4FF0020C0CFAB3
S113361003FC20EA0C007066306810320AFA02F2E9
S1133620024332606A69D278002A00F0AE80706E7C
S113363040229A4002437266706E20229A400243EE
S11336407266706E0AFA03F2024372662A693A4499
S1133650D279002A00F0A080706E80229A40024342
S113366072662A693A449279002A00F09C80706E4E
S1133670102202FA03F30343736601F0FE082B6978
S11336803B44DA7A41463046FFF7B7F92B691F44C9
S113369008F101013A7BC9B23046FFF7AEF909F1EE
S11336A001095FFA89F96B784B4540F284804FEA4F
S11336B009172B69DA19D95D4B08527B002A7FF46C
S11336C073AF326F0AFA01F022EA000232672A6904
S11336D03A44507B127A90423FF46CAF06EBC1023D
S11336E0D06820F00400D060D06840F00800D060BA
S11336F0726EDB000BFA03F022EA0002726606EB3C
S1133700C102D06840F01000D060D06840F02000C2
S1133710D060306801F110020AFA02F2024332600A
S113372028693844427A002A3FF47CAF4A1CD2B25A
S1133730807B00287FF449AF306F0AFA02FC20EA4C
S11337400C00306706EBC200D0F80CC02CF0040C5F
S1133750C0F80CC0D0F80CC04CF0080CC0F80CC079
S11337602869384490F80EE090F80DC0E6453FF41F
S113377034AF807A00287FF447AFD6F864C00220C3
S1133780984040EA0C00706646E7726E402098400C
S113379022EA000272664FE7726E8020984022EAA5
S11337A0000272665DE7726E102000FA03F322EAEB
S11337B00303736661E7636D43F0020363656B693A
S11337C0DA78002A65D01B78C3B1E36F43F4004371
S11337D0E367E26F6B699B781B0203F4706322F466
S11337E070621343E367029B042B34BF4FF0040C55
S11337F04FF0020C0426002301271DE0E36F23F49D
S11338000043E367E5E7E26F07FA06FE22EA0E02E9
S1133810E2676A6901EB410111448A79012AD4F80B
S113382088200CBF22EA00001043C4F8880001334A
S11338300136DAB294451BD919466A6903EB430091
S113384002441279002AF2D0E26F07FA03F002432D
S1133850E2676A6903EB430E72445279002AD2D0BC
S1133860D4F87CE007FA06F242EA0E02E267D0E7F7
S11338706B695B781BB1636D43F080036365626DB4
S11338806B69DB785B0103F0600322F06002134391
S113389063652368AA78042A14BF0022012223F056
S11338A0200343EA42132360A9680298FEF7C2FF8B
S11338B0039B5880E36C1B0C1B04E364AB78042B60
S11338C03CD0A268039B5B88013B9BB2120C1204A0
S11338D01343A3602B78002B3BD00026374606EB1E
S11338E08601EA6802EB41035B8812F81110019724
S11338F000973A460298FFF7B5FC0136F6B22B78EA
S1133900B342ECD86B78A3B100263746DDF80880C3
S11339103101286942185388415C019792880092CA
S11339203A464046FFF79EFC0136F6B26B78B34246
S1133930EED888B10023039A537022E5A368039A52
S113394052881B0C1B0443EA5203A360C2E7012004
S113395017E56B78002BD7D1A26EEB7803F03F0309
S113396022F03F021343A366A26E2B799B01DBB2C4
S113397022F0C0021343A366636D43F00103636541
S1133980636D43F0080363652268039B1B78DB00C7
S113399003F0180322F01802134323600020F0E41C
S11339A070B51C46134B53F82050134B53F820604A
S11339B0012908D073689A4201D9012070BD1146CB
S11339C0FEF738FF02467378042B10D0013AAB6837
S11339D091B21B0C1B040B43AB60AB6DE401E4B26E
S11339E023F080031C43AC657280002070BD520834
S11339F0EDE700BF246200002C00002070B49DF8A5
S1133A000C600D4C54F8205071B1501E023B4C1EFA
S1133A1052FA84F210F8011F33F8024F013105EB1A
S1133A20C1018C609042F5D11EB1AB6D43F08003AF
S1133A30AB65002070BC7047246200000A4B53F849
S1133A4020304AB91A681031012000FA01F122EA43
S1133A50010119600020704718681031012202FA30
S1133A6001F101431960F5E724620000254B53F886
S1133A7020305A6F12F0800F29D1234A12782AB3CA
S1133A80D3F8942022F0FF02C3F89420D3F89420B2
S1133A9022F47F42C3F89420D3F8942022F0FF024A
S1133AA0C8B20243C3F89420D3F89420090289B21F
S1133AB022F47F421143C3F8941000221A6612497B
S1133AC00A701A6822F400721A601B687047012099
S1133AD00D4A107019665A6F22F081025A675A6FA4
S1133AE022F082025A675A6F22F084025A675A6F90
S1133AF022F088025A675A6F1A6822F400721A6018
S1133B001B687047246200003C00002070B5444BE1
S1133B1053F82060002E7FD07378002B7ED1414B68
S1133B2053F82040D4F8803023F00103C4F88030E7
S1133B30236823F018032360D4F880200B78DB007B
S1133B4003F0080322F008021343C4F880308B7991
S1133B50002B47D0D4F8803043F08003C4F8803081
S1133B600D468B79002B44D16B7A002B47D0D4F8C7
S1133B70803043F04003C4F880306B7A002B45D189
S1133B80D4F880202B7A5B0103F0200322F020027A
S1133B901343C4F88030D4F88020EB7A1B0103F07F
S1133BA0100322F010021343C4F88030E36C1B0CA2
S1133BB01B046A881343E364A3681B0C1B04AA88D0
S1133BC01343A36063681B0C1B046A88134363607C
S1133BD0D4F8803043F00103C4F8803005237370B7
S1133BE0002070BDD4F8803023F08003C4F8803006
S1133BF0B6E7CA7900212046FEF718FFB4E7D4F8E7
S1133C00803023F04003C4F88030B6E7AA7A01215B
S1133C102046FEF70BFFB3E7012070BD012070BD05
S1133C202C00002024620000074B53F82020074B8F
S1133C3053F82010D2F8803023F00103C2F880300A
S1133C4000204870704700BF246200002C00002050
S1133C5030B40A4A52F82120D2F88010D2F88040B9
S1133C60156852680280C5F340228270C4F3400292
S1133C70C270C1F38002027130BC7047246200003C
S1133C8001230370002343804FF6FF728280837107
S1133C90C371037243728372C372704772B110B4FA
S1133CA0144600F11003084A52F823302360103000
S1133CB0054B43F820105DF8044B70471030024B5D
S1133CC043F82010704700BF0090FF1F420900F026
S1133CD01F00012303FA00F0014B43F82200704750
S1133CE000E100E0430900F01F00012202FA00F0A5
S1133CF02033024A42F82300704700BF00E100E08D
S1133D00054B1B68002B04DD013B034A1360002BA9
S1133D1000DD704762B6FCE7C000002072B6024ABC
S1133D201368013313607047C0000020002808DBCB
S1133D300901C9B200F1604000F5614080F8001348
S1133D407047C0B2C0F38102012A0DD010B40A4CEE
S1133D500A4B022A18BF234600F003000901C9B226
S1133D6019545DF8044B7047054B00F0030009013A
S1133D70C9B21954704700BF20ED00E01CED00E00B
S1133D8018ED00E0002807DB00F1604000F5614019
S1133D9090F8000300097047C0B2C0F38102012A01
S1133DA009D00649064B022A18BF0B4600F003004F
S1133DB0185C00097047034BF8E700BF20ED00E0F2
S1133DC01CED00E018ED00E0430900F01F000122A3
S1133DD002FA00F06033024A42F82300704700BF41
S1133DE000E100E0430900F01F00012202FA00F0A4
S1133DF04033024A42F82300704700BF00E100E06C
S1133E0043094033044A52F8233000F01F0023FAD8
S1133E1000F000F00100704700E100E04309803346
S1133E20044A52F8233000F01F0023FA00F000F097
S1133E300100704700E100E0002303704370704705
S1133E400023037001224270044941600372C3607D
S1133E50037443748374C3740275704740420F0043
S1133E6070B582B006460C46264D05EB8001452010
S1133E70FEF71AF9002002A941F8040DFEF714F91F
S1133E8055F82620019B03EB5203B3FBF2F21346D1
S1133E901D48816841F0020181602AB1013B00BFE5
S1133EA000BF00BF002BF9D117498B6823F0020330
S1133EB08B601346886840F0010088602AB1013B9A
S1133EC000BF00BF00BF002BF9D121780E4B9A68C8
S1133ED022F008029A609A68002914BF082300237C
S1133EE01A43094B9A6061789A6822F004029A6036
S1133EF09B68002914BF042200221343024A9360E2
S1133F0002B070BDC400002000700340024A9368F0
S1133F1023F001039360704700700340024A536921
S1133F2019435161704700BF00700340024A93690E
S1133F3019439161704700BF00700340F8B506460D
S1133F400C461746244D05EB80014520FEF7ACF8DE
S1133F5055F82600214A0023A0FB070101F056FE74
S1133F6010F1FF3641F1FF37230103F1804303F5DC
S1133F705C339B6AC3F38103012B20D0022B24D131
S1133F80012F08BF002E12D30120F8BD144A0023CC
S1133F90BB4208BFB24210D3002F08BFB6F5803F22
S1133FA005D3B0F1011006044FF6FF721643023434
S1133FB024010C4B1E510020F8BD0120F8BD012F37
S1133FC008BF002EE2D30120F8BD012F08BF002E48
S1133FD0EDD30120F8BD00BFC400002040420F0013
S1133FE0FEFF01000070034030B583B030238DF82C
S1133FF0043031238DF8053032238DF80630332315
S11340008DF807300D4659B9D37C002B40F0AC80B5
S1134010564B996A21F002019962996A00230EE0D5
S1134020D47C0B0103F1804303F55C33996A21F0DE
S113403002019962996A002C14BF022300231446DA
S113404019432B0103F1804303F55C339962127821
S1134050996A21F00C019962996A920002F00C02AB
S11340600A439A626378012B68D06168AB1C1B0118
S11340703E4AD150227A2B0103F1804303F55C338D
S1134080996A21F400019962996AD20502F4000246
S11340900A439A62E268996A21F070619962996AA6
S11340A0120602F070620A439A62217C9A6A22F430
S11340B080229A629A6A002914BF4FF48023002355
S11340C01A432B0103F1804303F55C339A62617C4C
S11340D09A6A22F400329A629A6A002914BF4FF451
S11340E0003300231A432B0103F1804303F55C33AF
S11340F09A62A17C9A6A22F480329A629A6A0029AE
S113410014BF4FF4803300231A432B0103F180437F
S113411003F55C339A62237DC3B914490B69012208
S1134120AA4023EA02030B6102AB1D4415F9040CF7
S1134130FFF7D8FD0023184603B030BD6268294656
S1134140FFF7FCFE03460028F5D193E7074A1169FF
S11341500123AB400B43136102AB1D4415F9040C5E
S1134160FFF7B4FD0023E6E70123E4E70070034012
S11341702DE9F84305460E4691461F461A4C04EBBA
S113418080014520FDF790FF54F82580174A00234D
S1134190A9FB080101F03AFD10F1FF3441F1FF35AC
S11341A0002D08BFB4F5803F17D2A7FB08010F4AC2
S11341B0002301F02BFD10F1FF3041F1FF31002904
S11341C008BFB0F5803F0BD2220402430236360109
S11341D0074B9A510020BDE8F8830120BDE8F8831D
S11341E00120BDE8F88300BFC400002040420F0056
S11341F000700340F8B506460F46404901EB8001C4
S11342004520FDF751FF3E49BB1C1B01C858002542
S113421001EB07118B6AC3F38103012B4DD1002DF0
S113422008BFB0F5803F27D3020C002380B20021E1
S1134230801859414C01420144EAD063121A63EBDD
S113424001035C0244EAD25455022A1844EB0103E8
S11342509D0145EA92659401A21A65EB0303801857
S11342605941264B53F826200023264C00250019DB
S1134270694101F0CBFCF8BD441C45F1000569011E
S1134280620141EAD463121B63EB0503590241EA5C
S1134290D2515002021941EB0503990141EA92619E
S11342A09001801A61EB0301144B53F8262000237C
S11342B00019694101F0AAFCF8BD441C45F1000550
S11342C06901620141EAD463121B63EB05035902DD
S11342D041EAD2515002021941EB0503990141EA26
S11342E092619001801A61EB0301044B53F826207C
S11342F000230019694101F089FCF8BDC4000020C5
S11343000070034080841E002DE9F0410646324BC4
S11343108A1C03EB021257683C4603EB01139B6AA9
S1134320C3F38103012B2BD0002513B32B4901EBDD
S113433080014520FDF7B8FE6001E10E001B61EB32
S113434005014B0243EAD0534202101943EB050125
S11343508B0143EA90638201101A63EB01011F4B46
S113436053F8262000230019694101F04FFCBDE8F1
S1134370F0811A4901EB80014520FDF795FEDBE74A
S1134380DFF8588008EB80014520FDF78DFE3A0CDC
S11343900023BCB20025A4185D416901620141EA11
S11343A0D463121B63EB0503590241EAD251500254
S11343B0021941EB0503990141EA92619001801AC7
S11343C061EB030158F8262000230019694101F02C
S11343D01DFCBDE8F08100BF00700340C400002054
S11343E002310901014B5A50704700BF007003406D
S11343F043EA02430231090101484350704700BFB8
S113440000700340074B8A1C1201985803EB0113F8
S11344109B6AC3F38103012B04BF83B203EB1040F7
S1134420704700BF00700340074B8A1C03EB021265
S1134430506803EB01139B6AC3F38103012B04BF90
S113444083B203EB1040704700700340024A1369C3
S113445019431161704700BF00700340024A136999
S113446023EA01011161704700700340014BD868D1
S11344700840704700700340014BD960DB68704707
S11344800070034008B500F083FF01210020FFF70E
S1134490F3FF08BD08B501F05FF808BD08B500F0EA
S11344A077FF08BD10B582B0164BB3F88A204FF0E1
S11344B08C41154B43F82210144A936843F00103CE
S11344C0936001A94520FDF7EFFD114C2146002022
S11344D0FFF7C6FC221D00210846FFF785FD0F21CA
S11344E03020FFF723FC00220A493020FFF7D6FBD7
S11344F0064B596941F001010020FFF70FFD02B09E
S113450010BD00BF10610000005006400070034061
S1134510686200008544000008B54FF0E022D2F83C
S1134520883D43F47003C2F8883DFFF7F7FB00F0C1
S113453003FD01F011F8FFF7B5FFFFF7E1FBFEE71C
S1134540194B984204D0194B984220D0FF20704751
S1134550102927D8DFE801F0090C2626262626266E
S113456026262626260F1215180042F00100704751
S113457042F00200704742F00400704742F0080025
S1134580704702F00E00704702F00D00704719B139
S1134590012904D0FF20704702F00B00704702F09D
S11345A007007047FF20704700A0044000B004409B
S11345B038B504460068616850F82120237A012B3D
S11345C03FD0002B3AD0022B40D0657A2D0105F064
S11345D0100322F050051D43A37A9B0103F040030E
S11345E02B4323F4E065E37A082B32D01B0203F457
S11345F0E0632B43227BD20392B223F47823134348
S1134600627B120402F470221343A27B0AB143F0CA
S113461080732268616842F821302168D1F8C02093
S113462060680123834022EA0302E37B834013434F
S1134630C1F8C030E37A012B21D038BD22F0020248
S1134640C3E722F0010242F00202BEE742F0030295
S1134650BBE71B4B5A6802F00F02FFF771FFFF28FC
S11346600BD0174B5A6822F00F025A605A6800F0B8
S11346700F00104358600023B8E70023B6E7216910
S11346804B69227D22B1012A0AD0012A05D10BE00F
S1134690616801228A4023EA020322695361CCE75C
S11346A06068012282401343656808680122AA40B9
S11346B020EA0200627DAA4002430A60EDE700BFDF
S11346C00080044070B505460E4650F82140082A83
S11346D008D024F4E064120202F4E062224345F8B4
S11346E0262070BD0A4B5A6802F00F02FFF728FF1C
S11346F0FF280BD0064B5A6822F00F025A605A6802
S113470000F00F00104358600022E2E70022E0E7C7
S11347100080044022F4F14222F02C0292B22BB128
S113472010B4012B07D05DF8044B704742EA0142F4
S1134730C0F88020704742EA0142C0F88420F2E7C2
S1134740120402F470222BB110B4012B06D05DF8D0
S1134750044B70470A43C0F8882070470A43C0F8E6
S11347608C20F4E72DE9F04F83B08379012B07D037
S1134770EBB1022B15D001274FF0000B5E4604E08D
S1134780204B1E7B022740F2031B00230B70002EDC
S11347902FD091460C4680469A461A4DCDF804B067
S11347A011E0184B1E7B01274FF4827BEDE7154B7C
S11347B01E7B022740F2031BE7E723780133DBB2B9
S11347C023709E4219D9AA6852F82330002BF4D0E2
S11347D01A79BA42F1D01A6899684046904700287D
S11347E0EBD023786B73B9F1010F05D1DDF804A088
S11347F0E3E74FF0000A00E0DA46504603B0BDE8B4
S1134800F08F00BF0802002010B5094C2060217110
S11348100021A17332B11146A1602373637300F0C8
S1134820E2F810BD024B00229A601A735A73F6E73D
S11348300802002008B5044B00221A601A719A601D
S11348401A7300F015F908BD08020020044B9A7B86
S11348500270587B1B7BC01A18BF0120704700BF31
S113486008020020054B1A68997B52F82120026047
S1134870587B1B7BC01A18BF012070470802002018
S1134880014B587B704700BF08020020054B5A7B40
S11348901B7B934283BF034B9B6853F82200002089
S11348A0704700BF08020020F0B585B006460C46EC
S11348B000238DF80F301B4B1A6852F820701A7BB6
S11348C05A738DF809108DF80800019701238DF8AB
S11348D00A300A460DF10F0101A8FFF743FF012C2E
S11348E001D0054688B9384600F0D6F8054660B9C7
S11348F00C4B9E7302238DF80A3001220DF10F0137
S113490001A8FFF72FFF054608E000238DF80A30C1
S113491001220DF10F0101A8FFF724FF284605B07D
S1134920F0BD00BF08020020012303700023437080
S1134930704700BF124BD3F8003623F00103114A2D
S113494012780AB143F001030D4AC2F80036D2F8D6
S1134950003323F001030B4A52780AB143F00103F8
S1134960074AC2F80033D2F8003123F00103054AA4
S113497092780AB143F00103014AC2F8003170474A
S113498000400640C8000020094BD3F8002622F05E
S11349900102C3F80026D3F8002122F00102C3F873
S11349A00021D3F8002322F00102C3F8002370474A
S11349B0004006400378042B13D000B583B00423D1
S11349C08DF800300123ADF802300223ADF8043035
S11349D0ADF8063069460020FDF7C2F803B05DF873
S11349E004FB0020704710B582B000238DF8053019
S11349F08DF804301A4B1A79CAB11868031F013AAA
S1134A00D2B200EB8200012406E01278022A0BD015
S1134A10052A09D083420AD053F8042F11780029BB
S1134A20F3D18DF80540F0E78DF80440F2E701A9D1
S1134A300C4800F076FA0C4AD2F800160B4B01F041
S1134A4001011970D2F8001301F001015970D2F874
S1134A50002102F001029A70002002B010BD00BFD4
S1134A600802002000E0074000400640C800002083
S1134A7000207047074B5B69DBB2042B06D0802B08
S1134A8006D0012B0CBF012006207047022070477E
S1134A900020704700E0074030B583B00378022B54
S1134AA016D90546B04A5269D2B2042A00F0C6802B
S1134AB0102A00F00C81012A00F06381032B05D336
S1134AC0042B40F20D81052B00F0C88004242DE155
S1134AD0A54A5269D2B2042A00F0EF800DD8012A07
S1134AE000F02B81022A40F058810222012B55D07C
S1134AF093B1022B6FD0042418E1102A00F04B81EB
S1134B00802A40F04A81012B3CD00BB900240DE1EE
S1134B10022B5DD0042409E102A9012301F8083D18
S1134B20914800F0A5F90446002840F0FF8008E110
S1134B300124FBE0062B02D08C4B5B7803B38B4B38
S1134B40DB78A3B1FFF7F6FE89490020FDF708F8EA
S1134B500446002840F0EA800023844AD37002A966
S1134B6001F8043D804800F083F90446DEE002A920
S1134B70002301F8043D7C4800F07AF90446D5E0AE
S1134B800124D3E0802300E00423012B06D1774BDA
S1134B90DB787BB90024C9E00123F6E702A90123ED
S1134BA001F8083D704800F063F90446002840F01D
S1134BB0BD80ECE7FFF7BEFE6D490020FCF7D0FF97
S1134BC00446002840F0B2800022684BDA70ADE061
S1134BD0802200E00422042A2ED0634B5B69DBB2FE
S1134BE0012B0AD002A9012301F8083D5E4800F018
S1134BF03FF90446002840F099805C4BDB78BBB158
S1134C005B48FFF7D7FE0446002840F08F8001225E
S1134C10564BDA7002AC022304F8083DFFF7B4FEE9
S1134C202146514800F024F904467FE00122D2E7EE
S1134C304F48FDF71DF8E3E7002477E0032B3AD350
S1134C40042B07D9052B36D1FFF714FF012813D005
S1134C5000240DE004233FE001233DE002A90123E9
S1134C6001F8043D404800F003F904460028EBD065
S1134C7005238DF8043044E03C4BDB7873B13C48A9
S1134C80FFF798FE04460028F2D10122374BDA7070
S1134C9005238DF80430FFF777FEE9E73448FCF785
S1134CA0E7FFECE74FF0E022D2F8103D23F00203D7
S1134CB0C2F8103D31E0042438E0012B3FF464AF26
S1134CC0002B3FF429AF022B84D004242EE0032BC5
S1134CD031D3042B2DD81023012B08BF002407D077
S1134CE002A9012301F8043D1F4800F0C1F804465D
S1134CF02B788DF80430032B0CBF012302238DF88D
S1134D0005309CB96B78002BCCD04FF0E022D2F860
S1134D10103D43F00203C2F8103D01A9124800F00F
S1134D20A7F8041E40F2011318BF1C46204603B026
S1134D3030BD052B92D00424F8E7012B3FF42CAFAF
S1134D40D3B90C4BDB69C3F30363084A1278002A16
S1134D507FF4F0AE054A5278002A3FF4E9AE062B00
S1134D607FF4EAAE0124E1E700E00740C800002038
S1134D70CC00002000400640022B3FF457AF04242F
S1134D80D4E7032B05D3042B7FF666AF052B3FF442
S1134D905BAF0424CAE71022A8E6FF22A6E68068D7
S1134DA001390C2929D8DFE801F0070A0D2810136E
S1134DB016191C1F22282500C0F340007047C0F3B9
S1134DC080007047C0F3C0007047C0F340107047C4
S1134DD0C0F380107047C0F3C0107047C0F30020C8
S1134DE07047C0F340207047C0F380207047C0F381
S1134DF0C0207047C0F3403070470020704700BFA8
S1134E002DE9F04180290BD05AB300244FF0040857
S1134E104FF0FF0E4FF0100C8027012602250FE003
S1134E206423013BFDD1EFE7102B16D0802B10D16A
S1134E303B4600E02B46994214D00134A24211D0E3
S1134E404369DBB2042B06D0EED8012B07D0022B2A
S1134E50F0D07346EFE74346EDE76346EBE73346AE
S1134E60E9E70024A24294BF00200120BDE8F081BC
S1134E7008B50B78052B52D8DFE803F02303123270
S1134E803232C36823F06003C3604FF47A720121A5
S1134E90FFF7B6FF002840F2011018BF002008BD3C
S1134EA0C36823F0600343F04003C3604FF47A7295
S1134EB00421FFF7A5FF002840F2011018BF0020CD
S1134EC008BDC36843F06003C3604FF47A72802165
S1134ED0FFF796FF002840F2011018BF002008BD1C
S1134EE0033BDBB2012B10D90223C26822F0070274
S1134EF01343C3604FF0E022D2F8103D43F00403A3
S1134F00C2F8103D30BF002008BD026922F0C00283
S1134F104B789B01DBB2134303610023E5E70420D4
S1134F2008BD0B78002B0CBF002320234A780AB15C
S1134F3043F080038360704730B5A5B006AD782296
S1134F400021284600F0EEFF01248DF818408DF86A
S1134F5019408DF81A408DF81B408DF81D408DF8CE
S1134F6020408DF821408DF824408DF82640314BA7
S1134F700A938DF82D4003238DF82F308DF830409F
S1134F808DF831408DF8354004228DF83A208DF8A3
S1134F903C408DF83D308DF840408DF848408DF808
S1134FA04C308DF84D408DF84E308DF84F40062230
S1134FB08DF851208DF852308DF8544002218DF82F
S1134FC055108DF856308DF857408DF859208DF8CE
S1134FD05B408DF85C408DF860408DF861408DF841
S1134FE063408DF864408DF88C408DF88D400595B4
S1134FF0002524AA42F8805D2B46214605A8FCF72B
S1135000BDFF29462846FCF7C7FF8DF80C408DF8F4
S11350100D5003AB029324AA42F88C5D2B46214623
S113502002A8FFF7F1FB29462846FFF73DFC25B00F
S113503030BD00BF00127A00013820F07F40034BDE
S1135040586000229A6007221A60704710E000E05E
S1135050264B274A9A4208D013462448254A13F877
S1135060011B02F8011B9842F9D1234B234A9A42AF
S113507008D013462048224A13F8011B02F8011BEA
S11350808342F9D11F4B204A9A4206D0134600218D
S11350901C4A03F8011B9342FBD11C4B1C4A9A4245
S11350A008D0134619481B4A13F8011B02F8011BC8
S11350B08342F9D1184B194A9A4212D010B4184CB1
S11350C0A40808D01946002351F8040B42F8040B35
S11350D00133A342F8D1134B104A1A605DF8044B14
S11350E07047104B0C4A1A60704700BF20680000DC
S11350F0CC6200000094FF1F2068000020680000BC
S11351005499FF1F80020020000000202068000046
S11351102068000000000020000000000090FF1F35
S11351200004000008ED00E04FF0E023D3F8882DE0
S113513042F47002C3F8882DD3F8342F22F0804251
S1135140C3F8342F054B064A5A605A6842F22012BB
S11351501A604FF6FF729A60704700BF0020054046
S113516020C528D91B4B1A691B69C3F30363013B90
S1135170052B2ED8DFE803F025030D2D2D12154B3A
S1135180D3F8083203F00103002B134918BF0B4670
S113519018E0104BD3F80833104B13E00D4BD3F841
S11351A00816D3F80836C3F3044303F110000A4B7E
S11351B003FB00F3C1F3022101314900B3FBF1F316
S11351C000E0054BC2F303420132B3FBF2F3044A9D
S11351D0136070470040064000127A00006CDC0245
S11351E03095FF1F4FF0E021D1F80C2D92B2024B05
S11351F01343C1F80C3D70470400FA050000000099
S11352000123837503754375704710B4937D002B98
S11352104ED1436814691B1B07EE903A436813612F
S113522000239375137D7BB9B8EE677ADFED226AAC
S113523027EE267AD2ED026A27EE267AD2ED006AAC
S113524036EE877A82ED007A537D7BB9F8EE677A81
S11352509FED197A67EE877A92ED037A67EE877A83
S113526092ED017A77EE277AC2ED017AD2ED007AD7
S113527030EE670AF0EE0E7A20EE270AD2ED017ABC
S11352809FED0E7A67EE877A30EE670A81ED000AA9
S113529000231375506890605375D1ED007A9FED2B
S11352A0087A67EE877AC2ED037A5DF8044B70479B
S11352B0DFED047AB2E700BF6F12033B8FC2F53B08
S11352C0FCE95D410000000001238375037543750B
S11352D0704710B4937D002B4ED1836814691B1B57
S11352E007EE903A8368136100239375137D7BB9AD
S11352F0B8EE677ADFED226A27EE267AD2ED026AEB
S113530027EE267AD2ED006A36EE877A82ED007AAD
S1135310537D7BB9F8EE677A9FED197A67EE877A49
S113532092ED037A67EE877A92ED017A77EE277A27
S1135330C2ED017AD2ED007A30EE670AF1EE0E7A10
S113534020EE270AD2ED017A9FED0E7A67EE877A76
S113535030EE670A81ED000A0023137550689060EF
S11353605375D1ED007A9FED087A67EE877AC2ED26
S1135370037A5DF8044B7047DFED047AB2E700BFAF
S11353800AD7A33C9A99193EABAAAA400000000090
S113539030B585B0644AD2F880306449C3F38003E1
S11353A08B75D2F88030C3F340030B761368C3F3D4
S11353B04023CB7553688B82116821F4007111600E
S11353C012685B4A11895B1A1BB200EE103AB8EE00
S11353D0C00ADFED587A20EE270AD2ED007A30EECB
S11353E0270A10EE103A42F8243B534C03A92046F6
S11353F0FFF70BFF637B1BB94D4B5A684B4B1A608D
S11354004A4B93ED007ADFED4D7A77EEC77A9DED46
S1135410037A77EEC77A9FED4A7A67EE877A17EEBA
S1135420900A00F0C3FA0022464B00F061F90446EA
S11354300D4639A3D3E9002300F08EFB00283FD0AA
S1135440414A3A4B9A60394CD4ED027A9FED3F7A47
S113545067EE877AFCEEE77A01230193002000903F
S113546017EE903A9BB202460146FDF7FBFEA36895
S1135470E360314B5B7B002B35D00123019300218A
S113548000914FF480430A460320FDF7EBFE274BBF
S11354904FF07C525A609A8A254B1A81264B5B7BCB
S11354A05BBB224B1A69224B5A60234B5A68013268
S11354B05A609A6801329A6001225A7305B030BD6D
S11354C017A3D3E900232046294600F027FB18B18F
S11354D01F4A164B9A60B6E72046294600F046FB61
S11354E0124B9860AFE71B4B1A4604F1100113ED01
S11354F0030A1148FFF7EDFEBFE70F494A6801327E
S11355004A600133DBB2092B03D900220A4B5A73D8
S1135510D4E74B73D2E700BF00000080EB51E83FB3
S1135520000000E051B8CE3F00A003405402002028
S113553018020020EC51B83D700200200000000069
S1135540A5C7A5390000E03F5C8F423F000000473B
S11355508FC2753E240200202DE9F04389B003ACCC
S1135560514D0FCD0FC42B68238000250095019564
S113557002954FF6FF73ADF804304C4EB6F85A401E
S1135580A40004F1804404F5CA24236843F0804352
S11355902360474F06220D213846FFF793F823680E
S11355A043F08043236006220C213846FFF78AF833
S11355B0B6F87C3007F5E0374FF08C4847F8238085
S11355C09B0003F1804303F5CA231A6842F080422A
S11355D01A60384A03A90220FDF7BCF86946022084
S11355E0FEF794FAB6F85C40A40004F1804404F594
S11355F0CA24236843F080432360DFF8E09002224A
S113560008214846FFF75EF8B6F87E3047F8238055
S11356109B0003F1804303F5CA231A6842F08042D9
S11356201A60254A25490320FDF794F824490320EC
S1135630FDF79AFE2A4601212248FDF7DEF9236888
S113564043F08043236002220C214846FFF73AF8D6
S1135650B6F8783047F823809B0003F1804303F5C4
S1135660CA231A6842F080421A60174A174928462A
S1135670FDF770F816492846FDF776FE2A46012103
S11356801448FDF7BAF9144B012283F83A2083F841
S1135690382083F8392083F8222083F8202083F8E7
S11356A0212009B0BDE8F08384620000106100008D
S11356B000900440D4000020A8010020E894FF1FBB
S11356C0FC94FF1F0060024048010020A094FF1FCB
S11356D0B494FF1F008003401802002000A004407F
S11356E0704700BF81F0004102E000BF83F0004337
S11356F030B54FEA41044FEA430594EA050F08BF69
S113570090EA020F1FBF54EA000C55EA020C7FEA2C
S1135710645C7FEA655C00F0E2804FEA5454D4EBA9
S11357205555B8BF6D420CDD2C4480EA020281EA73
S1135730030382EA000083EA010180EA020281EAAB
S11357400303362D88BF30BD11F0004F4FEA0131FD
S11357504FF4801C4CEA113102D0404261EB41010C
S113576013F0004F4FEA03334CEA133302D0524292
S113577063EB430394EA050F00F0A780A4F101044E
S1135780D5F1200E0DDB02FA0EFC22FA05F2801888
S113579041F1000103FA0EF2801843FA05F359416E
S11357A00EE0A5F120050EF1200E012A03FA0EFCED
S11357B028BF4CF0020C43FA05F3C01851EBE37117
S11357C001F0004507D54FF0000EDCF1000C7EEB34
S11357D000006EEB0101B1F5801F1BD3B1F5001F72
S11357E00CD349085FEA30004FEA3C0C04F1010491
S11357F04FEA445212F5800F80F09A80BCF1004FBA
S113580008BF5FEA500C50F1000041EB045141EA3B
S1135810050130BD5FEA4C0C404141EB010111F43C
S1135820801FA4F10104E9D191F0000F04BF0146E7
S11358300020B1FA81F308BF2033A3F10B03B3F1C5
S113584020020CDA0C3208DD02F1140CC2F10C0255
S113585001FA0CF021FA02F10CE002F11402D8BFB3
S1135860C2F1200C01FA02F120FA0CFCDCBF41EA7F
S11358700C019040E41AA2BF01EB0451294330BD4E
S11358806FEA04041F3C1CDA0C340EDC04F114042B
S1135890C4F1200220FA04F001FA02F340EA030002
S11358A021FA04F345EA030130BDC4F10C04C4F148
S11358B0200220FA02F001FA04F340EA0300294628
S11358C030BD21FA04F0294630BD94F0000F83F472
S11358D0801306BF81F480110134013D4EE77FEA55
S11358E0645C18BF7FEA655C29D094EA050F08BFA1
S11358F090EA020F05D054EA000C04BF1946104682
S113590030BD91EA030F1EBF0021002030BD5FEAC5
S1135910545C05D14000494128BF41F0004130BDED
S113592014F580043CBF01F5801130BD01F0004541
S113593045F0FE4141F470014FF0000030BD7FEAB4
S1135940645C1ABF194610467FEA655C1CBF0B46AF
S1135950024650EA013406BF52EA033591EA030FC6
S113596041F4002130BD00BF90F0000F04BF0021BE
S1135970704730B54FF4806404F132044FF00005F1
S11359804FF0000150E700BF90F0000F04BF00216A
S1135990704730B54FF4806404F1320410F00045D0
S11359A048BF40424FF000013EE700BF42004FEACB
S11359B0E2014FEA31014FEA02701FBF12F07F4348
S11359C093F07F4F81F06051704732F07F4208BFFF
S11359D0704793F07F4F04BF41F40021704730B506
S11359E04FF4607401F0004521F000411CE700BF52
S11359F050EA010208BF704730B54FF000050AE0D5
S1135A0050EA010208BF704730B511F0004502D5D5
S1135A10404261EB41014FF4806404F132045FEAD7
S1135A20915C3FF4D8AE4FF003025FEADC0C18BF80
S1135A3003325FEADC0C18BF033202EBDC02C2F172
S1135A40200300FA03FC20FA02F001FA03FE40EA04
S1135A500E0021FA02F11444BDE600BF4FF0FF3CF2
S1135A6006E000BF4FF0010C02E000BF4FF0010C54
S1135A704DF804CD4FEA410C7FEA6C5C4FEA430CCD
S1135A8018BF7FEA6C5C1BD001B050EA410C0CBF1C
S1135A9052EA430C91EA030F02BF90EA020F00207E
S1135AA0704710F1000F91EA030F58BF994208BFE5
S1135AB090422CBFD8176FEAE37040F001007047A2
S1135AC04FEA410C7FEA6C5C02D150EA013C07D1F9
S1135AD04FEA430C7FEA6C5CD6D152EA033CD3D044
S1135AE05DF8040B704700BF8446104662468C463E
S1135AF01946634600E000BF01B5FFF7B7FF002871
S1135B0048BF10F1000F01BD4DF808EDFFF7F4FF99
S1135B100CBF012000205DF808FB00BF4DF808ED24
S1135B20FFF7EAFF34BF012000205DF808FB00BF47
S1135B304DF808EDFFF7E0FF94BF012000205DF869
S1135B4008FB00BF4DF808EDFFF7CEFF94BF01201E
S1135B5000205DF808FB00BF4DF808EDFFF7C4FF17
S1135B6034BF012000205DF808FB00BF4FEA41026A
S1135B70B2F1E04324BFB3F5001CDCF1FE5C0DD9A7
S1135B8001F0004C4FEAC0024CEA5070B2F1004FF1
S1135B9040EB830008BF20F00100704711F0804FF4
S1135BA021D113F13872BCBF01F00040704741F4B9
S1135BB080114FEA5252C2F11802C2F1200C10FABD
S1135BC00CF320FA02F018BF40F001004FEAC123A1
S1135BD04FEAD32303FA0CFC40EA0C0023FA02F345
S1135BE04FEA4303CCE77FEA625307D150EA01331B
S1135BF01EBF4FF0FE4040F44000704701F00040EB
S1135C0040F0FE4040F40000704700BF53B94AB969
S1135C10002908BF00281CBF4FF0FF314FF0FF30B0
S1135C2000F07EB9ADF1080C6DE904CE00F006F881
S1135C30DDF804E0DDE9022304B070472DE9F04704
S1135C40089D04468E46002B4ED18A4294466DD957
S1135C50B2FA82F757B1C7F1200EB94020FA0EFE0E
S1135C6002FA07FC4EEA010E00FA07F44FEA1C4957
S1135C70210CBEFBF9F61FFA8CF809FB16EE41EA7B
S1135C800E4106FB08F38B420AD91CEB010106F115
S1135C90FF3280F027818B4240F22481023E61442E
S1135CA0C91AA4B2B1FBF9F009FB101144EA01448A
S1135CB000FB08F8A0450AD91CEB040400F1FF33EB
S1135CC080F00E81A04540F20B810238644440EA22
S1135CD00640A4EB080400267DB1FC4000232C60A0
