S011000061646465727366756E632E6D6F7451
S113000000400020B50400001D0500001D0500008F
S11300101D0500001D0500001D0500000000000076
S11300200000000000000000000000001D050000AA
S11300301D050000000000001D0500001D05000056
S11300401D0500001D0500001D0500001D05000024
S11300501D0500001D0500001D0500001D05000014
S11300601D0500001D0500001D0500001D05000004
S11300701D0500001D0500001D0500001D050000F4
S11300801D0500001D0500001D0500001D050000E4
S11300901D0500001D0500001D0500001D050000D4
S11300A01D0500001D0500001D0500001D050000C4
S11300B01D0500001D0500001D0500001D050000B4
S11300C01D0500001D0500001D0500001D050000A4
S11300D01D0500001D0500001D0500001D05000094
S11300E01D0500001D0500001D0500001D05000084
S11300F01D0500001D0500001D0500001D05000074
S1130100652C00001D0500001D0500001D050000F4
S11301101D0500001D0500001D0500001D05000053
S11301201D0500001D0500001D0500001D05000043
S11301301D0500001D0500001D0500001D05000033
S11301401D0500001D0500001D0500001D05000023
S11303F01D0500001D0500001D050000FFFFFFFF97
S1130400FFFFFFFFFFFFFFFFFFFFFFFFFE7FFFFF79
S1130410044B05481B1A062B02D9044B03B1184799
S1130420704700BFC798FF1FC498FF1F000000005B
S113043005490648091A891001EBD171491002D007
S1130440034B03B118477047C498FF1FC498FF1F9C
S11304500000000010B5064C237843B9FFF7D8FF1D
S1130460044B13B10448AFF300800123237010BD83
S113047000000020000000005841000008B5084BAF
S11304801BB108490848AFF300800848036813B952
S1130490BDE80840CCE7064B002BF9D09847F7E7B6
S11304A0000000000400002058410000C098FF1F15
S11304B00000000072B64FF000014FF000024FF050
S11304C000034FF000044FF000054FF000064FF01A
S11304D00007B846B946BA46BB46BC460A490B4A69
S11304E0521A013A05DD0020042308601944043A35
S11304F0FBDA07488546074880470748804762B6C5
S113050002F0FAFBFEE700000090FF1F004000200D
S1130510004000204D3A000075390000FFF7FEBF8F
S113052010B4427883789B0043EA42030278134371
S1130530C27843EAC20344798279920042EA4402CF
S113054004792243C07942EAC0001844C0B2013998
S1130550002340FA03F202F0010201F8012F0133F3
S1130560052BF6D15DF8044B7047000038B5414DBA
S1130570284602F075FC404CC0F3801020702846D9
S113058002F06EFCC0F3C0106070284602F068FCF4
S1130590C0F30020A070284602F062FCC0F34020A3
S11305A0E070284602F05CFCC0F3802020712846ED
S11305B002F056FCC0F3C0206071284602F050FCE3
S11305C0C0F30030A071284602F04AFCC0F340306A
S11305D0E0712378237263786372A378A372E3785B
S11305E0E3722379237363796373A379A373E07349
S11305F004F1100104F10800FFF792FF237C03B318
S113060001211E4802F026FC1B4B5B7CF3B1022146
S11306101A4802F01FFC184B9B7CE3B104211748D5
S113062002F018FC144BDB7CD3B10821134802F010
S113063011FC114B1B7DC3B91021104802F00CFCB6
S113064038BD01210D4802F007FCDDE702210B480B
S113065002F002FCDFE70421084802F0FDFBE1E7B9
S11306600821064802F0F8FBE3E71021034802F0F2
S1130670F1FB38BD00F10F4044000020C0F00F40F2
S11306802DE9F04387B0DFF85092B9F86260B60004
S113069006F1804606F5CA26336843F0804333608A
S11306A00025029503950595DFF83082CDF800808A
S11306B00623019301248DF80B408DF80E40854FDD
S11306C004976946204602F02BFB336843F08043CD
S11306D03360029503950595CDF8008007230193B7
S11306E08DF80B408DF80E4004976946204602F0C1
S11306F017FB336843F080433360029503950595F7
S1130700CDF80080082301938DF80B408DF80E403E
S113071004976946204602F003FB336843F08043A4
S11307203360029503950595CDF800800923019364
S11307308DF80B408DF80E4004976946204602F070
S1130740EFFA336843F080433360029503950595CF
S1130750CDF800800A2301938DF80B408DF80E40EC
S113076004976946204602F0DBFA336843F080437D
S11307703360029503950595CDF800800B23019312
S11307808DF80B408DF80E4004976946204602F020
S1130790C7FA336843F080433360029503950595A7
S11307A0CDF800800C2301938DF80B408DF80E409A
S11307B004976946204602F0B3FA336843F0804355
S11307C03360029503950595CDF800800D230193C0
S11307D08DF80B408DF80E4004976946204602F0D0
S11307E09FFAB9F86060B60006F1804606F5CA269D
S11307F0336843F080433360019502950395059572
S1130800A8F58058CDF800808DF80B408DF80E4087
S1130810403F04978DF814406946204602F080FA60
S1130820336843F080433360029503950595CDF812
S1130830008001948DF80B408DF80E4004978DF8DC
S113084014406946204602F06BFA336843F0804353
S11308503360029503950595CDF80080022301933A
S11308608DF80B408DF80E4004978DF814406946BE
S1130870204602F055FA336843F080433360029512
S113088003950595CDF80080032301938DF80B4063
S11308908DF80E4004978DF814406946204602F006
S11308A03FFA336843F0804333600295039505951E
S11308B0CDF80080042301938DF80B408DF80E4091
S11308C004978DF814406946204602F029FA07B0CF
S11308D0BDE8F08300F10F402440000000D0044044
S11308E0704700BF074B5B69DBB2042B06D0802B3B
S11308F006D0012B0CBF0120042070470220704752
S11309000320704700E00740044BD3F8003113F094
S1130910807F1ABF024B18680020704700400640D1
S11309205C00002010B584B00B4600293BD0444A3B
S1130930D2F8002112F0007F7DD1414AD2F8001193
S113094021F40001C2F800114FF08061C2F80011D7
S113095000213C4A1160002870D05A7A120202F435
S1130960E062197A01F007010A433548C0F804210E
S1130970DA79120102F030029979C90001F0080114
S11309800A435979890001F004010A43C0F8082197
S11309901A79012A29D0E2B1022A32D01A68294BE5
S11309A01A60294C3BE000238DF804308DF80C309C
S11309B001228DF808208DF809208DF805208DF886
S11309C0063002238DF8073004AB204A43F8102D7B
S11309D0ADE71A7B002A14BF4FF40002002242F054
S11309E001021749C1F80021D8E71A7B002A14BF75
S11309F04FF40002002242F001121149C1F8002113
S1130A00CCE71A7B002A14BF4FF403024FF44032A0
S1130A1042F001020A49C1F80021BFE7013CFFF797
S1130A2073FF18B9002CF9D1032005E0002C14BF82
S1130A300020032000E0022004B010BD0020FBE7EA
S1130A40004006405C00002088E7300000127A0075
S1130A50084BD3F8003213F0807F09D0054BD3F84C
S1130A60083203F00103002B034808BF002070473D
S1130A70002070470040064000127A0010B582B092
S1130A800B46002938D02D4AD2F8002212F0007FFC
S1130A904FD12A4AD2F8001221F40001C2F8001200
S1130AA00021C2F80012002846D09A78120202F4FB
S1130AB0E062597801F007010A432049C1F8042291
S1130AC01A7802F00102C1F8082259799A791B793F
S1130AD0002B14BF03230123002914BF0421002188
S1130AE00B43002A14BF4FF4000200221343134A9D
S1130AF0C2F80032642410E000238DF8043001228F
S1130B008DF805208DF806308DF801208DF802202F
S1130B1002AB03F8082DB6E7013CFFF799FF18B9BB
S1130B20002CF9D1032005E0002C14BF0020032081
S1130B3000E0022002B010BD0020FBE700400640A8
S1130B40054BD3F8003313F0807F1DBF024BD3F85D
S1130B50083302480020704700400640006CDC0265
S1130B6010B582B00B46002932D0294AD2F80023AE
S1130B7012F0007F47D1264AD2F8001321F4000175
S1130B80C2F800134FF08061C2F8001300283DD072
S1130B909A78120202F4E062597801F007010A43DC
S1130BA01B49C1F804231A7802F00302C1F8082390
S1130BB09A795B79002B14BF01230923002A14BFFF
S1130BC04FF4000200221343C1F8003314240EE052
S1130BD001238DF8053000228DF806208DF80130B0
S1130BE08DF8023002AB03F8082DBEE7013CFFF795
S1130BF0A7FF18B9002CF9D1032005E0002C14BF7D
S1130C000020032000E0022002B010BD0020FBE71A
S1130C100040064008B50F4BD3F8003613F0807F30
S1130C2002D10023184608BDFFF76EFE03460028D4
S1130C30F8D00849D1F80826C2F302220132B0FBE9
S1130C40F2F3D1F80826C2F30442103203FB02F394
S1130C505B08E7E70040064010B584B00C4699B144
S1130C603D4BD3F8003613F0007F72D13A4BD3F8E2
S1130C70002622F40002C3F800264FF08062C3F875
S1130C800026A0B9002065E000238DF804308DF81B
S1130C900B3001228DF808208DF809208DF80530DD
S1130CA007228DF806208DF8073001ACD8E7FFF74E
S1130CB02BFE63791B0203F4E063227902F007023E
S1130CC013432549C1F8043663781B0203F4E06337
S1130CD0A278120402F4F8121343C1F808362378F8
S1130CE0012B16D04BB1022B1FD04FF47A74FFF7AF
S1130CF091FF48BB34B3013CF9E7E379002B14BFFF
S1130D004FF40003002343F00103134AC2F80036F2
S1130D10EBE7E379002B14BF4FF40003002343F007
S1130D2001130D4AC2F80036DFE7E379002B14BF44
S1130D304FF403034FF4403343F00103064AC2F86F
S1130D400036D2E7032005E0002C14BF0020032066
S1130D5000E0022004B010BD004006402DE9F0413F
S1130D6080460D468C7801344E7806FB04460F7895
S1130D7007FB0447CB78013B052B1CD8DFE803F0C5
S1130D800312151B1B18FFF7BFFD0009B8F1020F72
S1130D904AD0B8F1030F7CD0B8F1010F0DD0002078
S1130DA0BDE8F081FFF754FEEFE7FFF7C9FEECE77B
S1130DB0FFF730FFE9E70020E7E7EA7802EB4201BA
S1130DC05D4B53F821301B0904FB03F4A04200F2ED
S1130DD098800B46584901EB83035B681B0906FBAB
S1130DE003F6B04200F2908002EB420301EB83036E
S1130DF09B681B0907FB03F7B84200F28880AB78B5
S1130E001B0403F47023120602F0706213432A7861
S1130E1002F00F0213436A781201D2B21343474A15
S1130E2053610020BDE8F081EA7802EB4201424BB5
S1130E3003EB81035B6D1B0904FB03F4A04269D837
S1130E400B463D4901EB83039B6D1B0906FB03F62F
S1130E50B04262D802EB420301EB8303DB6D1B0952
S1130E6007FB03F7B8425BD8AB781B0403F4702389
S1130E70120602F0706213432A7802F00F02134341
S1130E806A781201D2B213432C4A93610020BDE860
S1130E90F081EB7803EB4301274A02EB8102D2F89D
S1130EA0A820120904FB02F4A0423CD80A462249B5
S1130EB001EB8202D2F8AC20120906FB02F6B04222
S1130EC034D803EB430201EB8202D2F8B0201209BA
S1130ED007FB02F7B8422CD8AA78120402F4702255
S1130EE01B0603F0706313432A7802F00F021343C6
S1130EF06A781201D2B21343104AD3610020BDE8CC
S1130F00F0810120BDE8F0810120BDE8F0810120DD
S1130F10BDE8F0810120BDE8F0810120BDE8F08149
S1130F200120BDE8F0810120BDE8F0810120BDE889
S1130F30F0810120BDE8F081283F00000040064018
S1130F4038B50546FFF7CEFC2946FFF707FF0446F0
S1130F5058B9E8780A220849013A0B69C3F30363D4
S1130F60984204D0002AF7D10324204638BD002A31
S1130F7008BF0324F9E700BF0040064010B504464B
S1130F801B4B1B69C3F30363013B052B1DD8DFE82F
S1130F9003F00313161C1C19FFF7B6FC144B1B6952
S1130FA0C3F303430133B0FBF3F0012C0FD0ECB1D6
S1130FB0022C14D0002010BDFFF74AFDEEE7FFF726
S1130FC0BFFDEBE7FFF726FEE8E70020E6E7084B66
S1130FD01B69C3F303130133B0FBF3F010BD044BDF
S1130FE01B6903F00F030133B0FBF3F010BD00BF26
S1130FF00040064008B50F4B1B6AC3F30363062B7E
S113100015D8DFE803F004080B0E141411000220B5
S1131010FFF7B4FF08BDFFF777FC08BDFFF718FD25
S113102008BDFFF78DFD08BDFFF7F4FD08BD0020E6
S113103008BD00BF0040064008B541B1012931D0C8
S11310400020024610B1431E22FA03F008BD043802
S1131050032852D8DFE800F00B02141DFFF770FDDF
S11310600246294BD3F8040300F00700EAE7FFF730
S1131070EFFC0246244BD3F8040200F00700E1E73A
S1131080FFF742FC0246204BD3F8040100F00700AE
S1131090D8E7FFF7BFFD02461B4BD3F8040600F068
S11310A00700CFE7043803282AD8DFE800F00B0252
S11310B0141DFFF745FD0246134BD3F80403C0F398
S11310C00220BFE7FFF7C4FC02460F4BD3F804022B
S11310D0C0F30220B6E7FFF717FC02460A4BD3F829
S11310E00401C0F30220ADE7FFF794FD0246064B6E
S11310F0D3F80406C0F30220A4E700200246A1E7C7
S1131100002002469EE700BF0040064008B5114B90
S11311101B69C3F30113032B19D8DFE803F002079B
S1131120101300210620FFF787FF08BD094B18693B
S113113000F00200002818BF4FF4FA4008BD064B27
S1131140186808BD00210520FFF776FF08BD0020C0
S113115008BD00BF008004406000002038B51D4B6E
S113116003EB4000B0F8FC309B0003F1804303F52F
S1131170CA231D68C5F3C0051C6804F00704AC420B
S113118025D31868C0F3807010B31B68C3F30263DF
S1131190013B052B19D8DFE803F0030C10181814D1
S11311A00620FFF749FF0134B0FBF4F005FB000013
S11311B038BD0420FFF740FFF5E70520FFF73CFFAB
S11311C0F1E70720FFF738FFEDE70020EBE7002009
S11311D038BD00BF283F00000F4B1B69C3F38103D8
S11311E0022B07D0032B0ED0002B0CBF4FF4FA3088
S11311F000207047084B186900F00200002818BF4F
S11312004FF4FA407047044B186900F002000028BC
S113121018BF4FF4FA4070470080044008B5244BCF
S11312205B6813F4006F40D0214B5B68C3F3031376
S11312300E2B09D8DFE803F00A080D081208171C62
S113124020252F0829082C00002026E0FFF7D2FED5
S113125023E001210620FFF7EFFE1EE00121042018
S1131260FFF7EAFE19E001210520FFF7E5FE14E08F
S11312700020FFF783FE10E001210720FFF7DCFECA
S11312800BE00120FFF77AFE07E0FFF7A5FF04E07B
S1131290FFF73CFF01E04FF4FA30054B5B68C3F302
S11312A002230133B0FBF3F008BD002008BD00BFEA
S11312B00080044030B583B00546FFF7ABFC88B12D
S11312C0062D56D006238DF8073002238DF80630FC
S11312D001238DF8053002A800F8043DFFF730FE25
S11312E0044600E00124FFF72BFC10B1032D4AD083
S11312F074B9FFF709FB10B1012D4DD0D4B9FFF734
S1131300A7FB10B1022D00D01CBB204603B030BD9A
S113131003238DF8073000228DF8062001228DF872
S1131320052002A800F8043DFFF70AFE0446E0E7A2
S11313300124E3E701238DF8073000228DF806200D
S11313408DF8053002A800F8043DFFF7F9FD0446C6
S1131350D5E702238DF8073000238DF806308DF889
S1131360053002A8012300F8043DFFF7E9FD044617
S1131370CBE7FFF7E5FB0028CAD1FFF7C5FA002841
S1131380D6D10124BBE7FFF7BFFA0028B6D1FFF797
S11313905FFB0028B8D1B8E7FFF75AFB0028B3D1A8
S11313A0B3E7174B1B69C3F30363013B052B06D853
S11313B0DFE803F0031D200505230123C370104952
S11313C00A69104BC2F303121A4492F89C2142702A
S11313D00A69C2F303421A4492F89C2182700A6992
S11313E002F00F02134493F89C31037070470223F8
S11313F0C370E4E70323C370E1E70623C370DEE7A9
S113140000400640283F000001383F282DD8DFE87F
S113141000F02A282C262C2C2C242C2C2C2C2C2C84
S11314202C222C2C2C2C2C2C2C2C2C2C2C2C2C2C02
S11314302C202C2C2C2C2C2C2C2C2C2C2C2C2C2CF4
S11314402C2C2C2C2C2C2C2C2C2C2C2C2C2C2C2CD8
S11314502C2E062070470520704704207047032077
S11314607047022070470120704700207047072012
S11314707047F0B5A1B028B304460646002800F032
S1131480FE80644B1B69C3F30363032B00F0C88025
S1131490FFF756FB002800F0B48003238DF80730D3
S11314A000228DF8062001228DF8052020A800F8DE
S11314B07C3DFFF745FD0546002800F0B180284635
S11314C021B0F0BD01238DF80B3000228DF80C20E3
S11314D08DF80D308DF80E208DF808308DF8093018
S11314E08DF80A308DF816308DF814308DF81520EB
S11314F08DF80F208DF810308DF811308DF83830BC
S11315000D928DF82530444906918DF81C208DF8F4
S113151024208DF81D308DF81E2002208DF81F0028
S11315208DF820308DF821308DF830308DF828205A
S11315308DF82F208DF829200C218DF82A108DF894
S11315402B208DF82C308DF82D308DF83D30032173
S11315508DF83C108DF84B308DF841108DF84020FB
S11315608DF83F308DF83E308DF845008DF84430CD
S11315708DF843208DF8421006208DF849008DF82F
S113158048208DF847308DF8461024491E912021BB
S11315901D918DF84C308DF84D208DF84E208DF82E
S11315A04F208DF850308DF854308DF853308DF82D
S11315B052208DF851208DF868308DF869308DF8FF
S11315C06A308DF86B308DF86C308DF86D308DF895
S11315D073308DF858301792189219928DF86E3036
S11315E08DF86F308DF870208DF871208DF8722091
S11315F08DF87C308DF87D308DF87E2002AE344637
S11316003FE700210120FFF7ABFA054600287FF4ED
S113161056AF42E70040064000127A000094FF1FD4
S11316203146E078FFF72AFA0546002800F02881C1
S1131630FFF758F9022800F05D81032800F05D816E
S1131640012800F03781002D7FF439AF94F8303051
S113165013B1E26AAA4B1A6094F8353053B1A94920
S11316600A6A22F0706294F834301B0603F0706347
S113167013430B6294F84330002B40F0AA8114F119
S11316806C0F3AD0236F002B37D0E36E002B34D08D
S113169000219D489D4D01EB8102236F9B5C00EB73
S11316A04303B3F8FC309B0003F1804303F5CA23E2
S11316B01E6826F080461E60236F9F189E5CBB78D0
S11316C01B0603F0E063FA78D20002F00802134329
S11316D03A7902F0070213437A78002A14BF4FF0D4
S11316E080420022134300EB4606B6F8FC2045F87E
S11316F022300131E36E9942CDD394F84430C3B122
S113170094F8463094F847208149496821F47F6170
S113171094F84500002814BF4FF4006000201B011A
S1131720DBB2120202F4E06213430B430343784A30
S1131730536094F84830DBB194F84A3094F8492067
S11317407349096921F03F0194F84C00084394F867
S11317504B10002914BF022100219B0003F00C034D
S11317600343120102F0300213430B43684A13612E
S113177094F86030002B37D0654B196C21F00101CF
S113178094F861200A431A641B6C23F0020394F852
S11317906220002A14BF0222002213435C4A13640D
S11317A0136C23F0040394F86320002A14BF04226A
S11317B000221343564A1364136C23F0080394F86D
S11317C06420002A14BF082200221343504A1364E1
S11317D0136C23F0100394F86520002A14BF102220
S11317E0002213434A4A136494F8503033B1494BEE
S11317F0626D1A60A26D5A60E26D9A6094F8663068
S1131800EBB1434A936E00209066516821F48051F5
S113181094F868301B0303F480530B4353609066C1
S113182094F867305BB194F869305B0003F00E0301
S113183094F86A2042F080521343354A936694F830
S11318407430002B00F0E18033498B7803F07F0380
S113185094F8752082F0010243EAC213DBB28B7064
S113186094F97630002BBCBF20335BB22A490A7945
S113187003F01F0302F0E00213430B7100251EE680
S113188004F11001607FFFF74DF8054600287FF44E
S1131890CFAE04F1200194F82800FFF7DDF90546E6
S11318A0FFF720F8022825D0032826D0012801D0EC
S11318B0002601E004F13606002D7FF4C4AEF3786F
S11318C0032B2BD08DF80730B3788DF8063073785E
S11318D08DF80530337820A800F87C3DFFF730FB05
S11318E0054600287FF4AFAEE11DA07BFFF738F971
S11318F00546A8E604F13A06DEE704F13E06DBE716
S11319006000002000400640283F000000500640D0
S1131910008004406400002000D0074094F8283080
S11319200BBB637F93BBE378002B42D10125002DD1
S11319307FF489AEE11DA07BFFF712F9054600286C
S11319407FF481AEF3788DF80730B3788DF80630E4
S113195073788DF80530337820A800F87C3DFFF7C4
S1131960EFFA05466FE606238DF8073002238DF85B
S1131970063001238DF8053020A800F87C3DFFF7E0
S1131980DFFA0546637F7BB10128D0D101238DF8AE
S1131990073000228DF806208DF8053020A800F8C5
S11319A07C3DFFF7CDFA0546E378002BBFD0012D2F
S11319B0BDD102238DF8073000238DF806308DF851
S11319C0053020A8012300F87C3DFFF7B9FA05464D
S11319D0ADE704F136010120FFF7C0F90546002800
S11319E07FF46DAD04F13A010220FFF7B7F9054623
S11319F000287FF464AD04F13E010320FFF7AEF943
S1131A00054600287FF45BAD39E6002557E570B53F
S1131A1004460D46112807D9232840F285804D2815
S1131A2040F24F81042070BD11287AD8DFE800F01D
S1131A300913191F24292E33383C41484F565D643D
S1131A406B720020FFF79AFA03460020002D00F085
S1131A50AF812B6070BD0120FFF790FA0346002090
S1131A60F4E70220FFF78AFA03460020EEE7FFF7C7
S1131A70D5FB03460020E9E7FEF7EAFF0346002012
S1131A80E4E7FFF75DF803460020DFE7FEF73CFFDD
S1131A9003460020DAE7FFF7BDF803460020D5E748
S1131AA0A94B1B680020D1E7FFF7A4FA03460020E6
S1131AB0CCE700210420FFF7BFFA03460020C5E766
S1131AC001210420FFF7B8FA03460020BEE70021F5
S1131AD00520FFF7B1FA03460020B7E701210520EE
S1131AE0FFF7AAFA03460020B0E700210620FFF71B
S1131AF0A3FA03460020A9E701210620FFF79CFA78
S1131B0003460020A2E700210720FFF795FA0346C9
S1131B1000209BE701210720FFF78EFA03460020EF
S1131B2094E70023042091E7A0F115040E2C00F2A1
S1131B309980DFE804F00814202B353E434F5A65A2
S1131B406D767F878F00814BDB68C3F30163022BC3
S1131B5000F28B807E4A52F82330002024E07B4B35
S1131B60DB68C3F38163022B00F28280784A52F867
S1131B702330002018E0754BDB68C3F30173022B9C
S1131B8079D8734A52F8233000200DE06F4BDB689C
S1131B909B0F022B72D86E4A52F82330002003E0C8
S1131BA0FFF73CFB03460020002D00F001812B6071
S1131BB070BDFFF7ABFA03460020F5E7654B9B7851
S1131BC0DB0902D000231846EEE7FFF705FB0346C6
S1131BD00020E9E75F4B9B78DB0952D15B4B1B6923
S1131BE013F0010350D10020DEE75A4B9B78DB0948
S1131BF04ED1564B1B6913F002034CD10020D3E79E
S1131C00544B9B78DB094AD14FF4FA330020CBE7DD
S1131C104E4B1B6CC3F30013002B43D14FF4807065
S1131C20C2E74A4B1B6CC3F3C003002B3DD14FF4F6
S1131C308070B9E7454B1B6CC3F38003C3BB4FF4FF
S1131C408070B1E7414B1B6CC3F340039BBB4FF463
S1131C508070A9E73D4B1B6C13F001032ED14FF4A8
S1131C608070A1E7002304209EE7002318469BE729
S1131C700023184698E70023184695E700231846E2
S1131C8092E7002318468FE74FF47A7300208BE71E
S1131C900023184688E74FF4FA43002084E7002322
S1131CA0184681E7002318467EE7002318467BE7A1
S1131CB00023184678E70023184675E700231846E2
S1131CC072E7242805D804200023002D70D02B604F
S1131CD070BDA0F13303DBB21A2B07D81E4A22FAD7
S1131CE003F313F0010F18BF0420EDD11B4B03EBDA
S1131CF04403B3F8FC201A4B53F8223013F0804FFE
S1131D0043D14FF48070DFE70120FFF737F9002853
S1131D1048D100234FF48070D7E70020FFF72EF955
S1131D200028F6D03EE00220FFF728F90028F0D082
S1131D3038E016F0080F15D116F0100F1AD1002351
S1131D404FF48070C1E700BF6000002000800440B1
S1131D506400002000D0074041210004283F000017
S1131D600050064000212046FFF7F8F9034616F01C
S1131D70100F04D001212046FFF7F0F90346002B91
S1131D8014BF00204FF480709FE70A4B234493F85C
S1131D90AC6116F0200FB7D116F0400FBDD116F08C
S1131DA0800FC0D116F0180FC3D1002318468CE75A
S1131DB070BD00BF283F000070B582B004460D46D8
S1131DC089B1554B234493F8AC3113F0010F63D11F
S1131DD013F0180F30D06A78043A032A5AD8DFE88F
S1131DE002F02325272901238DF80030FEF730FE69
S1131DF048B104238DF801300123ADF80230ADF869
S1131E0004306D46DDE7FEF79BFE08B10523F1E7DC
S1131E10FEF700FF08B10723ECE7FEF775FD002885
S1131E2014BF06234F23E5E7022206E0032204E061
S1131E30012202E0062200E0002213F0040F1ABF80
S1131E40AE8806F1FF36002613F0020F1ABF698828
S1131E5001F1FF310021304B03EB4404B4F8FC40A2
S1131E60A30003F1804303F5CA23186820F08040DF
S1131E7018602B7863B1120642F0804206F0070620
S1131E803243C90001F008010A43244B43F82420DB
S1131E9002B070BD0022D0E72B781F3C042CF7D889
S1131EA0DFE804F02E22160A03001D490A6C22F012
S1131EB0010213430B64EBE7194A126C22F002028D
S1131EC0002B14BF022300231343154A1364DFE7D6
S1131ED0134A126C22F00402002B14BF04230023C3
S1131EE013430F4A1364D3E70D4A126C22F008021D
S1131EF0002B14BF082300231343094A1364C7E7C4
S1131F00074A126C22F01002002B14BF1023002386
S1131F101343034A1364BBE7283F00000050064004
S1131F200080044070B582B005460C46FEF7DAFC2A
S1131F3006469DB12B68022B0ED0042B10D0012B2A
S1131F400CBF012504256CB12378043B032B4AD82C
S1131F50DFE803F04B4345470225F4E70546F2E783
S1131F600325F0E7FEF7ECFD58B103238DF80730A5
S1131F7000228DF8062001228DF805208DF804300A
S1131F8049E0FEF747FE58B106238DF807300223D7
S1131F908DF8063001238DF805308DF804303AE0D1
S1131FA0FEF7B2FC50B101238DF8073000228DF802
S1131FB006208DF805308DF804302CE0FEF748FD3E
S1131FC048B302238DF8073000238DF806308DF8CE
S1131FD0053001238DF804301DE0032306E00123BE
S1131FE004E0062302E0FF2300E002238DF807301B
S1131FF00F4B62881A4492F8FC218DF80620A288BF
S11320001A4492F8FC218DF80520E288134493F8D1
S1132010FC318DF80430B54205D001A92846FEF7FD
S11320209DFE02B070BD01A8FEF78AFFF9E700BF6C
S1132030283F0000154B1B69C3F30363013B052BC9
S113204020D8DFE803F00316191F1F1C06230370B2
S11320500E4A1369C3F30343013343801369C3F383
S1132060031301338380136903F00F030133C38027
S1132070704704230370EBE705230370E8E70723A5
S11320800370E5E704230370E2E700BF0040064065
S11320902DE9F04186B004460D4631B38889FFF737
S11320A0B3F98046E889FFF7AFF907462E78201F79
S11320B0172800F23881DFE810F01C0057008F0069
S11320C0E4003601360136013601360136013601A7
S11320D03601360136013601360136013601360144
S11320E036013601360136011C010127B8463E4649
S11320F0DDE78E4B1B69C3F30363022B1FD000245F
S113210065B301238DF80D308DF80C3000228DF865
S11321100E208DF809808DF80A7006A901F8103D8B
S11321203046FEF7ABFC0346002B40F0E980002C60
S113213000F0E68001A8FEF703FF0346E0E00EB9D5
S11321400123DDE001A8FFF72CF90220FFF7B2F824
S11321500346002840F0D4803446D1E70021012012
S1132160FEF78CFC0346DFE7704B1B69C3F3036384
S1132170032B1CD000244DB300238DF80E308DF8B2
S113218009808DF80A708DF808308DF80D3002A999
S11321903046FEF7E5FC0346002B40F0B180002CEE
S11321A000F0AE8001A8FEF7CBFE0346A8E00EB90E
S11321B00123A5E001A8FFF7F4F80320FFF77AF85C
S11321C00346002840F09C803446D4E70021304682
S11321D0FEF7C6FC0346DFE7544B1B69C3F30363F6
S11321E0012B2FD00024002D3AD06B6802930022DB
S11321F08DF80C208DF814208DF810808DF8117056
S11322006A78012A14BF002201228DF80D200022D1
S11322108DF80E20A3F57412A2F5106244498A4287
S113222024D802238DF80F3002A93046FEF77AFB3A
S11322300346002B64D1002C62D001A8FEF780FE77
S113224003465DE00EB901235AE001A8FFF7A9F89F
S11322500120FFF72FF80346002851D13446C2E786
S113226000213046FEF75EFB0346E2E7A3F5F403E4
S1132270A3F590532F4A93429CBF03238DF80F304C
S1132280D2E72A4B1B69C3F30363062B1ED0002439
S11322904DB300238DF808308DF80F308DF80C8085
S11322A08DF80D70AB7A013B8DF809302B7A103B19
S11322B08DF80A3002A93046FEF7CEFC0346FBB97E
S11322C0F4B101A8FEF73CFE034619E00EB9012360
S11322D016E001A8FFF765F80620FEF7EBFF0346BA
S11322E070B93446D4E700213046FEF7B5FC034606
S11322F0E5E74EB9104A937843F0800393700023C6
S1132300184606B0BDE8F0810C4A136923F03F0378
S113231043F00303136102F55432937803F07F030F
S113232093700023ECE70023EAE700BF0040064077
S113233000093D000048E80100D007400080044047
S113234010B4054C20602171A260237363730020D4
S11323505DF8044B704700BF1C000020F0B583B04B
S113236007460E468DF804008DF8051000F0C6F8F7
S1132370334B1C7B5C7301238DF80630002C4AD050
S113238000242F4D04E00134E4B22B7BA34242D954
S1132390AB6853F82430002BF5D01A79022AF2D016
S11323A01A68996801A890470028ECD06C73002E35
S11323B0E9D140F2031500238DF80630A400204E25
S11323C020E00134E4B23B7BA34212D9BB6853F84A
S11323D02430002BF5D01A79012AF2D01A689968B2
S11323E001A890470028ECD07C73002EE9D14FF46B
S11323F0827500F075F8284603B0F0BD043C14F172
S1132400040FF6D0B3681B59002BF7D01A689968EB
S113241001A89047F2E70A4D2B6853F82700FFF70D
S113242028F86F7105460028C5D102238DF80630BF
S1132430034B1B7B002BDCD00024014FC6E700BFFD
S11324401C000020014B5879704700BF1C0000207D
S1132450054B5A7B1B79934283BF034B9B6853F80C
S113246022000020704700BF1C00002008B5FFF7C1
S1132470CEFA08BD08B5FEF7FCFF08BD72B110B472
S1132480144600F11003084A52F823302360103038
S1132490054B43F820105DF8044B70471030024B95
S11324A043F82010704700BF0090FF1F420900F05E
S11324B01F00012303FA00F0014B43F82200704788
S11324C000E100E0430900F01F00012202FA00F0DD
S11324D02033024A42F82300704700BF00E100E0C5
S11324E0054B1B68002B04DD013B034A1360002BE2
S11324F000DD704762B6FCE72C00002072B6024A89
S113250013680133136070472C000020002808DB97
S11325100901C9B200F1604000F5614080F8001380
S11325207047C0B2C0F38102012A0DD010B40A4C26
S11325300A4B022A18BF234600F003000901C9B25E
S113254019545DF8044B7047054B00F00300090172
S1132550C9B21954704700BF20ED00E01CED00E043
S113256018ED00E0002807DB00F1604000F5614051
S113257090F8000300097047C0B2C0F38102012A39
S113258009D00649064B022A18BF0B4600F0030087
S1132590185C00097047034BF8E700BF20ED00E02A
S11325A01CED00E018ED00E0430900F01F000122DB
S11325B002FA00F06033024A42F82300704700BF79
S11325C000E100E0430900F01F00012202FA00F0DC
S11325D04033024A42F82300704700BF00E100E0A4
S11325E043094033044A52F8233000F01F0023FA11
S11325F000F000F00100704700E100E0430980337F
S1132600044A52F8233000F01F0023FA00F000F0CF
S11326100100704700E100E000230370437070473D
S11326200023037001224270044941600372C360B5
S1132630037443748374C3740275704740420F007B
S113264070B582B006460C46264D05EB8001452048
S1132650FFF70CFF002002A941F8040DFFF706FF65
S113266055F82620019B03EB5203B3FBF2F2134609
S11326701D48816841F0020181602AB1013B00BF1D
S113268000BF00BF002BF9D117498B6823F0020368
S11326908B601346886840F0010088602AB1013BD2
S11326A000BF00BF00BF002BF9D121780E4B9A6800
S11326B022F008029A609A68002914BF08230023B4
S11326C01A43094B9A6061789A6822F004029A606E
S11326D09B68002914BF042200221343024A93601A
S11326E002B070BD3000002000700340024A9368BD
S11326F023F001039360704700700340024A53695A
S113270019435161704700BF00700340024A936946
S113271019439161704700BF00700340F8B5064645
S11327200C461746244D05EB80014520FFF79EFE1D
S113273055F82600214A0023A0FB070101F0F0F917
S113274010F1FF3641F1FF37230103F1804303F514
S11327505C339B6AC3F38103012B20D0022B24D169
S1132760012F08BF002E12D30120F8BD144A002304
S1132770BB4208BFB24210D3002F08BFB6F5803F5A
S113278005D3B0F1011006044FF6FF72164302346C
S113279024010C4B1E510020F8BD0120F8BD012F6F
S11327A008BF002EE2D30120F8BD012F08BF002E80
S11327B0EDD30120F8BD00BF3000002040420F00DF
S11327C0FEFF01000070034030B583B030238DF864
S11327D0043031238DF8053032238DF8063033234D
S11327E08DF807300D4659B9D37C002B40F0AC80EE
S11327F0564B996A21F002019962996A00230EE00E
S1132800D47C0B0103F1804303F55C33996A21F016
S113281002019962996A002C14BF02230023144612
S113282019432B0103F1804303F55C339962127859
S1132830996A21F00C019962996A920002F00C02E3
S11328400A439A626378012B68D06168AB1C1B0150
S11328503E4AD150227A2B0103F1804303F55C33C5
S1132860996A21F400019962996AD20502F400027E
S11328700A439A62E268996A21F070619962996ADE
S1132880120602F070620A439A62217C9A6A22F468
S113289080229A629A6A002914BF4FF4802300238D
S11328A01A432B0103F1804303F55C339A62617C84
S11328B09A6A22F400329A629A6A002914BF4FF489
S11328C0003300231A432B0103F1804303F55C33E7
S11328D09A62A17C9A6A22F480329A629A6A0029E6
S11328E014BF4FF4803300231A432B0103F18043B8
S11328F003F55C339A62237DC3B914490B69012241
S1132900AA4023EA02030B6102AB1D4415F9040C2F
S1132910FFF7D8FD0023184603B030BD626829468E
S1132920FFF7FCFE03460028F5D193E7074A116937
S11329300123AB400B43136102AB1D4415F9040C96
S1132940FFF7B4FD0023E6E70123E4E7007003404A
S11329502DE9F84305460E4691461F461A4C04EBF2
S113296080014520FFF782FD54F82580174A002393
S1132970A9FB080101F0D4F810F1FF3441F1FF354F
S1132980002D08BFB4F5803F17D2A7FB08010F4AFA
S1132990002301F0C5F810F1FF3041F1FF310029A7
S11329A008BFB0F5803F0BD2220402430236360141
S11329B0074B9A510020BDE8F8830120BDE8F88355
S11329C00120BDE8F88300BF3000002040420F0022
S11329D000700340F8B506460F46404901EB8001FC
S11329E04520FFF743FD3E49BB1C1B01C858002589
S11329F001EB07118B6AC3F38103012B4DD1002D29
S1132A0008BFB0F5803F27D3020C002380B2002119
S1132A10801859414C01420144EAD063121A63EB15
S1132A2001035C0244EAD25455022A1844EB010320
S1132A309D0145EA92659401A21A65EB030380188F
S1132A405941264B53F826200023264C0025001913
S1132A50694101F065F8F8BD441C45F100056901C0
S1132A60620141EAD463121B63EB0503590241EA94
S1132A70D2515002021941EB0503990141EA9261D6
S1132A809001801A61EB0301144B53F826200023B4
S1132A900019694101F044F8F8BD441C45F10005F2
S1132AA06901620141EAD463121B63EB0503590215
S1132AB041EAD2515002021941EB0503990141EA5E
S1132AC092619001801A61EB0301044B53F82620B4
S1132AD000230019694101F023F8F8BD30000020FB
S1132AE00070034080841E002DE9F0410646324BFD
S1132AF08A1C03EB021257683C4603EB01139B6AE2
S1132B00C3F38103012B2BD0002513B32B4901EB15
S1132B1080014520FFF7AAFC6001E10E001B61EB78
S1132B2005014B0243EAD0534202101943EB05015D
S1132B308B0143EA90638201101A63EB01011F4B7E
S1132B4053F8262000230019694100F0E9FFBDE88D
S1132B50F0811A4901EB80014520FFF787FCDBE790
S1132B60DFF8588008EB80014520FFF77FFC3A0C22
S1132B700023BCB20025A4185D416901620141EA49
S1132B80D463121B63EB0503590241EAD25150028C
S1132B90021941EB0503990141EA92619001801AFF
S1132BA061EB030158F8262000230019694100F065
S1132BB0B7FFBDE8F08100BF007003403000002083
S1132BC002310901014B5A50704700BF00700340A5
S1132BD043EA02430231090101484350704700BFF0
S1132BE000700340074B8A1C1201985803EB011331
S1132BF09B6AC3F38103012B04BF83B203EB104030
S1132C00704700BF00700340074B8A1C03EB02129D
S1132C10506803EB01139B6AC3F38103012B04BFC8
S1132C2083B203EB1040704700700340024A1369FB
S1132C3019431161704700BF00700340024A1369D1
S1132C4023EA01011161704700700340014BD86809
S1132C500840704700700340014BD960DB6870473F
S1132C600070034008B5FDF781FC01210020FFF747
S1132C70F3FF08BD08B5FDF703FD08BD08B5FDF772
S1132C8075FC08BD10B582B0164BB3F88A204FF01E
S1132C908C41154B43F82210144A936843F0010306
S1132CA0936001A94520FFF7E1FB114C2146002068
S1132CB0FFF7C6FC221D00210846FFF785FD0F2102
S1132CC03020FFF723FC00220A493020FFF7D6FB0F
S1132CD0064B596941F001010020FFF70FFD02B0D6
S1132CE010BD00BF244000000050064000700340A7
S1132CF038410000652C000008B54FF0E022D2F8FE
S1132D00883D43F47003C2F8883DFFF7F7FB00F0F9
S1132D10A5FDFDF7B5FCFFF7B5FFFFF7E1FBFEE707
S1132D2060B170B506460C460025204600F0D2F886
S1132D3001351834AE42F8D1002070BD0020704730
S1132D40012A0AD012B1022A10D0704750F821305B
S1132D5023F0020340F82130704750F8213023F06B
S1132D60010343F0020340F82130704750F821304A
S1132D7043F0030340F82130704708B500F034F9FC
S1132D8008BD50F8213023F47023120402F4702299
S1132D901A4340F82120704750F82100C0F3034043
S1132DA0704750F8213043F0807340F82130704769
S1132DB0D0F8C020012303FA01F11143C0F8C01078
S1132DC07047D0F8C030012202FA01F123EA01036E
S1132DD0C0F8C03070470B7803F00103C0F8C4306A
S1132DE04B7803F01F03C0F8C8307047D0F8A00038
S1132DF070474FF0FF33C0F8A03070474069704708
S1132E0010B4436901248C4023EA04038A401A4322
S1132E1042615DF8044B70474161704781617047BE
S1132E208069704708B500F007F908BD08B500F0DF
S1132E3019F908BD10B4036801248C4023EA040383
S1132E408A401A4302605DF8044B70470160704782
S1132E50006870474160704781607047C160704787
S1132E6000697047194B984204D0194B984220D0FE
S1132E70FF207047102927D8DFE801F0090C262627
S1132E802626262626262626260F1215180042F068
S1132E900100704742F00200704742F0040070479E
S1132EA042F00800704702F00E00704702F00D0077
S1132EB0704719B1012904D0FF20704702F00B00BC
S1132EC0704702F007007047FF20704700A00440DD
S1132ED000B0044038B504460068616850F8212009
S1132EE0237A012B3FD0002B3AD0022B40D0657AB5
S1132EF02D0105F0100322F050051D43A37A9B0118
S1132F0003F040032B4323F4E065E37A082B32D02B
S1132F101B0203F4E0632B43227BD20392B223F41B
S1132F2078231343627B120402F470221343A27BBE
S1132F300AB143F080732268616842F82130216845
S1132F40D1F8C02060680123834022EA0302E37BB6
S1132F5083401343C1F8C030E37A012B21D038BD3C
S1132F6022F00202C3E722F0010242F00202BEE7AD
S1132F7042F00302BBE71B4B5A6802F00F02FFF753
S1132F8071FFFF280BD0174B5A6822F00F025A60CA
S1132F905A6800F00F00104358600023B8E700237C
S1132FA0B6E721694B69227D22B1012A0AD0012AA0
S1132FB005D10BE0616801228A4023EA02032269F9
S1132FC05361CCE760680122824013436568086856
S1132FD00122AA4020EA0200627DAA4002430A605C
S1132FE0EDE700BF0080044070B505460E4650F87A
S1132FF02140082A08D024F4E064120202F4E062BA
S1133000224345F8262070BD0A4B5A6802F00F028D
S1133010FFF728FFFF280BD0064B5A6822F00F0257
S11330205A605A6800F00F00104358600022E2E72B
S11330300022E0E70080044022F4F14222F02C0256
S113304092B22BB110B4012B07D05DF8044B70473A
S113305042EA0142C0F88020704742EA0142C0F8C7
S11330608420F2E7120402F470222BB110B4012B75
S113307006D05DF8044B70470A43C0F888207047B7
S11330800A43C0F88C20F4E72DE9F04F83B083792C
S1133090012B07D0EBB1022B15D001274FF0000B09
S11330A05E4604E0204B1E7B022740F2031B0023F4
S11330B00B70002E2FD091460C4680469A461A4D2E
S11330C0CDF804B011E0184B1E7B01274FF4827B2E
S11330D0EDE7154B1E7B022740F2031BE7E723783D
S11330E00133DBB223709E4219D9AA6852F8233007
S11330F0002BF4D01A79BA42F1D01A689968404684
S113310090470028EBD023786B73B9F1010F05D1F8
S1133110DDF804A0E3E74FF0000A00E0DA46504689
S113312003B0BDE8F08F00BF7000002010B5094C5B
S1133130206021710021A17332B11146A160237373
S1133140637300F0E2F810BD024B00229A601A7318
S11331505A73F6E77000002008B5044B00221A6089
S11331601A719A601A7300F015F908BD70000020F6
S1133170044B9A7B0270587B1B7BC01A18BF01203A
S1133180704700BF70000020054B1A68997B52F805
S113319021200260587B1B7BC01A18BF0120704796
S11331A070000020014B587B704700BF7000002066
S11331B0054B5A7B1B7B934283BF034B9B6853F89D
S11331C022000020704700BF70000020F0B585B0D9
S11331D006460C4600238DF80F301B4B1A6852F834
S11331E020701A7B5A738DF809108DF80800019726
S11331F001238DF80A300A460DF10F0101A8FFF7EB
S113320043FF012C01D0054688B9384600F0D6F8B2
S1133210054660B90C4B9E7302238DF80A300122D7
S11332200DF10F0101A8FFF72FFF054608E0002369
S11332308DF80A3001220DF10F0101A8FFF724FFD8
S1133240284605B0F0BD00BF7000002001230370C4
S113325000234370704700BF124BD3F8003623F0AD
S11332600103114A12780AB143F001030D4AC2F86E
S11332700036D2F8003323F001030B4A52780AB126
S113328043F00103074AC2F80033D2F8003123F0B7
S11332900103054A92780AB143F00103014AC2F8D6
S11332A0003170470040064034000020094BD3F839
S11332B0002622F00102C3F80026D3F8002122F0F0
S11332C00102C3F80021D3F8002322F00102C3F85D
S11332D000237047004006400378042B13D000B548
S11332E083B004238DF800300123ADF802300223AB
S11332F0ADF80430ADF8063069460020FEF712FE42
S113330003B05DF804FB0020704710B582B00023C1
S11333108DF805308DF804301A4B1A79CAB1186843
S1133320031F013AD2B200EB8200012406E01278B6
S1133330022A0BD0052A09D083420AD053F8042F5D
S113334011780029F3D18DF80540F0E78DF8044099
S1133350F2E701A90C4800F076FA0C4AD2F80016FC
S11333600B4B01F001011970D2F8001301F00101B7
S11333705970D2F8002102F001029A70002002B0C4
S113338010BD00BF7000002000E007400040064070
S11333903400002000207047074B5B69DBB2042B2C
S11333A006D0802B06D0012B0CBF012006207047CD
S11333B0022070470020704700E0074030B583B01A
S11333C00378022B16D90546B04A5269D2B2042AB0
S11333D000F0C680102A00F00C81012A00F06381FD
S11333E0032B05D3042B40F20D81052B00F0C8807C
S11333F004242DE1A54A5269D2B2042A00F0EF80D8
S11334000DD8012A00F02B81022A40F058810222B3
S1133410012B55D093B1022B6FD0042418E1102A4C
S113342000F04B81802A40F04A81012B3CD00BB93B
S113343000240DE1022B5DD0042409E102A901233B
S113344001F8083D914800F0A5F90446002840F031
S1133450FF8008E10124FBE0062B02D08C4B5B7853
S113346003B38B4BDB78A3B1FFF7F6FE8949002049
S1133470FEF758FD0446002840F0EA800023844A01
S1133480D37002A901F8043D804800F083F9044692
S1133490DEE002A9002301F8043D7C4800F07AF93B
S11334A00446D5E00124D3E0802300E00423012B6B
S11334B006D1774BDB787BB90024C9E00123F6E71A
S11334C002A9012301F8083D704800F063F904469D
S11334D0002840F0BD80ECE7FFF7BEFE6D490020F8
S11334E0FEF720FD0446002840F0B2800022684B1D
S11334F0DA70ADE0802200E00422042A2ED0634B6F
S11335005B69DBB2012B0AD002A9012301F8083D53
S11335105E4800F03FF90446002840F099805C4B77
S1133520DB78BBB15B48FFF7D7FE0446002840F0C8
S11335308F800122564BDA7002AC022304F8083D56
S1133540FFF7B4FE2146514800F024F904467FE019
S11335500122D2E74F48FEF76DFDE3E7002477E050
S1133560032B3AD3042B07D9052B36D1FFF714FFCD
S1133570012813D000240DE004233FE001233DE0A3
S113358002A9012301F8043D404800F003F9044670
S11335900028EBD005238DF8043044E03C4BDB7865
S11335A073B13C48FFF798FE04460028F2D101228B
S11335B0374BDA7005238DF80430FFF777FEE9E71F
S11335C03448FEF737FDECE74FF0E022D2F8103D27
S11335D023F00203C2F8103D31E0042438E0012B4B
S11335E03FF464AF002B3FF429AF022B84D00424B2
S11335F02EE0032B31D3042B2DD81023012B08BF2D
S1133600002407D002A9012301F8043D1F4800F05B
S1133610C1F804462B788DF80430032B0CBF01232A
S113362002238DF805309CB96B78002BCCD04FF079
S1133630E022D2F8103D43F00203C2F8103D01A984
S1133640124800F0A7F8041E40F2011318BF1C46EC
S1133650204603B030BD052B92D00424F8E7012B9B
S11336603FF42CAFD3B90C4BDB69C3F30363084AB3
S11336701278002A7FF4F0AE054A5278002A3FF40B
S1133680E9AE062B7FF4EAAE0124E1E700E007404F
S1133690340000203800002000400640022B3FF494
S11336A057AF0424D4E7032B05D3042B7FF666AF6E
S11336B0052B3FF45BAF0424CAE71022A8E6FF22DF
S11336C0A6E6806801390C2929D8DFE801F0070A49
S11336D00D28101316191C1F22282500C0F34000C2
S11336E07047C0F380007047C0F3C0007047C0F358
S11336F040107047C0F380107047C0F3C01070478B
S1133700C0F300207047C0F340207047C0F380200E
S11337107047C0F3C0207047C0F3403070470020AA
S1133720704700BF2DE9F04180290BD05AB3002423
S11337304FF004084FF0FF0E4FF0100C80270126C5
S113374002250FE06423013BFDD1EFE7102B16D0D7
S1133750802B10D13B4600E02B46994214D0013413
S1133760A24211D04369DBB2042B06D0EED8012B60
S113377007D0022BF0D07346EFE74346EDE76346EC
S1133780EBE73346E9E70024A24294BF002001207E
S1133790BDE8F08108B50B78052B52D8DFE803F0BB
S11337A0230312323232C36823F06003C3604FF440
S11337B07A720121FFF7B6FF002840F2011018BF0A
S11337C0002008BDC36823F0600343F04003C360D6
S11337D04FF47A720421FFF7A5FF002840F201108C
S11337E018BF002008BDC36843F06003C3604FF4F2
S11337F07A728021FFF796FF002840F2011018BF6B
S1133800002008BD033BDBB2012B10D90223C268A0
S113381022F007021343C3604FF0E022D2F8103DB8
S113382043F00403C2F8103D30BF002008BD026914
S113383022F0C0024B789B01DBB2134303610023E7
S1133840E5E7042008BD0B78002B0CBF00232023E0
S11338504A780AB143F080038360704730B5A5B05D
S113386006AD78220021284600F0E6FA01248DF8FE
S113387018408DF819408DF81A408DF81B408DF8CA
S11338801D408DF820408DF821408DF824408DF89E
S11338902640314B0A938DF82D4003238DF82F30A9
S11338A08DF830408DF831408DF8354004228DF884
S11338B03A208DF83C408DF83D308DF840408DF82D
S11338C048408DF84C308DF84D408DF84E308DF8D1
S11338D04F4006228DF851208DF852308DF8544017
S11338E002218DF855108DF856308DF857408DF81B
S11338F059208DF85B408DF85C408DF860408DF860
S113390061408DF863408DF864408DF88C408DF8EB
S11339108D400595002524AA42F8805D2B4621465A
S113392005A8FEF70DFD29462846FEF717FD8DF87C
S11339300C408DF80D5003AB029324AA42F88C5D21
S11339402B46214602A8FFF7F1FB29462846FFF73C
S11339503DFC25B030BD00BF00127A00013820F0D4
S11339607F40034B586000229A6007221A60704718
S113397010E000E0264B274A9A4208D01346244818
S1133980254A13F8011B02F8011B9842F9D1234B75
S1133990234A9A4208D013462048224A13F8011BAE
S11339A002F8011B8342F9D11F4B204A9A4206D0E8
S11339B0134600211C4A03F8011B9342FBD11C4B04
S11339C01C4A9A4208D0134619481B4A13F8011B93
S11339D002F8011B8342F9D1184B194A9A4212D0BA
S11339E010B4184CA40808D01946002351F8040B4D
S11339F042F8040B0133A342F8D1134B104A1A6066
S1133A005DF8044B7047104B0C4A1A60704700BFB6
S1133A1048460000844100000094FF1F484600000F
S1133A2048460000C498FF1F8000002000000020CA
S1133A304846000048460000000000200000000046
S1133A400090FF1F0004000008ED00E04FF0E023A9
S1133A50D3F8882D42F47002C3F8882DD3F8342F9C
S1133A6022F08042C3F8342F054B064A5A605A6844
S1133A7042F220121A604FF6FF729A60704700BF3C
S1133A800020054020C528D91B4B1A691B69C3F3C4
S1133A900363013B052B2ED8DFE803F025030D2D2E
S1133AA02D12154BD3F8083203F00103002B1349F0
S1133AB018BF0B4618E0104BD3F80833104B13E033
S1133AC00D4BD3F80816D3F80836C3F3044303F1B7
S1133AD010000A4B03FB00F3C1F30221013149003A
S1133AE0B3FBF1F300E0054BC2F303420132B3FB35
S1133AF0F2F3044A136070470040064000127A0053
S1133B00006CDC02A094FF1F4FF0E021D1F80C2DD3
S1133B1092B2024B1343C1F80C3D70470400FA05FE
S1133B2053B94AB9002908BF00281CBF4FF0FF3120
S1133B304FF0FF3000F07EB9ADF1080C6DE904CE12
S1133B4000F006F8DDF804E0DDE9022304B0704774
S1133B502DE9F047089D04468E46002B4ED18A423B
S1133B6094466DD9B2FA82F757B1C7F1200EB94025
S1133B7020FA0EFE02FA07FC4EEA010E00FA07F4E0
S1133B804FEA1C49210CBEFBF9F61FFA8CF809FB1D
S1133B9016EE41EA0E4106FB08F38B420AD91CEBF0
S1133BA0010106F1FF3280F027818B4240F224812B
S1133BB0023E6144C91AA4B2B1FBF9F009FB101129
S1133BC044EA014400FB08F8A0450AD91CEB0404AC
S1133BD000F1FF3380F00E81A04540F20B810238E2
S1133BE0644440EA0640A4EB080400267DB1FC408E
S1133BF000232C606B603146BDE8F0878B4209D905
S1133C00002D00F01481002685E80300304631467B
S1133C10BDE8F087B3FA83F6002E40F090808B4223
S1133C2002D3824200F2FD80841A61EB0301012079
S1133C308E46002DEBD085E810403146BDE8F08774
S1133C401AB94FF0010CBCFBF2FCBCFA8CF7A7BB11
S1133C50A1EB0C034FEA1C421FFA8CF80126B3FBBC
S1133C60F2FE210C02FB1E3341EA034108FB0EF372
S1133C708B4208D91CEB01010EF1FF3002D28B42BA
S1133C8000F2D1808646C91AA3B2B1FBF2F002FB5E
S1133C90101143EA014408FB00F8A04508D91CEBC5
S1133CA0040400F1FF3302D2A04500F2B7801846A5
S1133CB0A4EB080440EA0E4098E7C7F1200301FA98
S1133CC007F40CFA07FC20FA03FED9404FEA1C4221
S1133CD04EEA040EB1FBF2F64FEA1E4302FB161144
S1133CE01FFA8CF843EA014306FB08F1994200FAF3
S1133CF007F40AD91CEB030306F1FF3080F08C8033
S1133D00994240F28980023E63445B1A1FFA8EF1A5
S1133D10B3FBF2F002FB103341EA034100FB08F36A
S1133D208B4208D91CEB010100F1FF3E70D28B429B
S1133D306ED902386144CB1A40EA06468FE7C6F1D1
S1133D40200722FA07F8B34001FA06F448EA03030D
S1133D5020FA07FC4FEA134EF9404CEA040CB1FB7D
S1133D60FEF94FEA1C440EFB19111FFA83F844EACA
S1133D70014109FB08F48C4202FA06F200FA06FA41
S1133D8008D9591809F1FF3044D28C4242D9A9F11B
S1133D9002091944091B1FFA8CFCB1FBFEF00EFB4F
S1133DA010114CEA014400FB08F8A04507D91C197E
S1133DB000F1FF312AD2A04528D902381C4440EA38
S1133DC00940A4EB0804A0FB02894C45C4464946BB
S1133DD016D313D055B1BAEB0C0364EB010404FA07
S1133DE007F7F3401F43F4402F606C600026314610
S1133DF0BDE8F0871846F4E61646DBE6C245E9D28C
S1133E00B8EB020C69EB03010138E3E70846D6E797
S1133E10704690E78146BDE7064676E7023864447B
S1133E2046E7304605E7AEF1020E61442BE72E4625
S1133E302846ECE6704700BF02440346934200D193
S1133E40704703F8011BF9E7024B13B1024800F075
S1133E5019B87047000000005D3E000038B5074DFA
S1133E60074C641BA4101CB9BDE8384000F07AB9B3
S1133E70013C55F824309847F5E700BF8041000025
S1133E8084410000002301461A46184600F000B899
S1133E902DE9F0411F46224B1C680646D4F8480120
S1133EA00D46904618B904F5A670C4F84801436855
S1133EB01F2B16DD1B4B1BB94FF0FF30BDE8F08103
S1133EC04FF4C870AFF300800028F5D0D4F848311F
S1133ED0036000214160C4F84801C0F88811C0F8AB
S1133EE08C1144689EB100EB84030122C3F88880DE
S1133EF0D0F88811A2401143022EC0F88811C3F8EB
S1133F00087102BFD0F88C311A43C0F88C21631CAD
S1133F100234436040F824500020BDE8F08100BF23
S1133F2054410000000000000000000000000000F8
S1133F300000000000B4C404006CDC02B0F396017D
S1133F4000B4C404006CDC02B0F3960100B4C404F1
S1133F50006CDC02B0F396010000000000000000D9
S1133F60000000000000000000000000000000004D
S1133F7000B4C404005A6202B0F3960100000000C9
S1133F80000000000000000000093D0000093D00A1
S1133F9040420F0000093D0000093D0040420F006F
S1133FA000093D0000093D0040420F0000000000F0
S1133FB000000000000000000000000000000000FD
S1133FC00000000000093D0000093D0040420F00D0
S1133FD000000000000000000000000000FCAC062F
S1133FE0007E5603003FAB0100FCAC06007E560386
S1133FF0003FAB0100FCAC06007E5603003FAB0162
S113400000000000000000000000000000000000AC
S1134010000000000000000000FCAC06007E560317
S1134020003FAB01000000000000000000000000A1
S1134030000000000000000000000000000000007C
S1134040000000000000000000000000000000006C
S1134050000000000000000000000000000000005C
S1134060000000000000000000000000000000004C
S113407000000000000073003200210061004900CC
S11340804A004B004C004D003D0000002400250078
S11340902B003600310000002000000038003900F9
S11340A03A00260000003B0027005A006600370053
S11340B02C002D002E0040006A006B006C000000F4
S11340C000000000000102030405060708090A0BAA
S11340D00C0D0E0F000000000000000000000000A6
S11340E000000000000000000000000000000000CC
S11340F00000004141414141000000000020202017
S1134100202020202020200040404040400080000B
S11341104848484800303030303030303036303065
S11341203000000000000102030405060708090A24
S11341300B0C0D0E0F000000000100000001000038
S1134140A086010001000000010000000000000042
S113415001000000A894FF1FF8B500BFF8BC08BC1C
S11341609E467047F8B500BFF8BC08BC9E46704731
S10B4170E0F9FF7F01000000EB
S10B4178493E00007D04000033
S107418055040000DE
S11341844101020000420102000029010000002A4A
S1134194010000002B010000002C01000000340188
S11341A40000003501000000360100000043010254
S11341B400003A010000003C010200003D0102003D
S11341C4003E010200003F0102000044010200001D
S11341D445010200004601020000470102000048B4
S11341E40102000049010200004A010200004B01DF
S11341F40200004C010200003701000000380100F5
S113420400002D010000002E010000002F01000019
S11342140030010000003101000000320100000000
S1134224006CDC0200000000000000009497FF1FF3
S1134234F897FF1F5C98FF1F0000000000000000B7
S11342440000000000000000000000000000000066
S11342540000000000000000000000000000000056
S11342640000000000000000000000000000000046
S11342740000000000000000000000000000000036
S11342840000000000000000000000000000000026
S11342940000000000000000000000000000000016
S11342A40000000000000000000000000000000006
S11342B400000000000000000000000000000000F6
S11342C400000000000000000000000000000000E6
S11342D401000000000000000E33CDAB34126DE683
S11342E4ECDE05000B0000000000000000000000EC
S11342F400000000000000000000000000000000B6
S113430400000000000000000000000000000000A5
S11343140000000000000000000000000000000095
S11343240000000000000000000000000000000085
S1074644000000006E
S90304B543
